{
  "abi": [
    {
      "inputs": [
        {
          "internalType": "address",
          "name": "_escrowAddress",
          "type": "address"
        },
        {
          "internalType": "address",
          "name": "_verificationRegistry",
          "type": "address"
        }
      ],
      "stateMutability": "nonpayable",
      "type": "constructor"
    },
    {
      "inputs": [],
      "name": "ReentrancyGuardReentrantCall",
      "type": "error"
    },
    {
      "anonymous": false,
      "inputs": [
        {
          "indexed": true,
          "internalType": "bytes32",
          "name": "id",
          "type": "bytes32"
        },
        {
          "indexed": true,
          "internalType": "address",
          "name": "creator",
          "type": "address"
        }
      ],
      "name": "CampaignCreated",
      "type": "event"
    },
    {
      "anonymous": false,
      "inputs": [
        {
          "indexed": true,
          "internalType": "bytes32",
          "name": "id",
          "type": "bytes32"
        }
      ],
      "name": "CampaignDisabled",
      "type": "event"
    },
    {
      "anonymous": false,
      "inputs": [
        {
          "indexed": true,
          "internalType": "bytes32",
          "name": "id",
          "type": "bytes32"
        },
        {
          "indexed": false,
          "internalType": "address",
          "name": "token",
          "type": "address"
        },
        {
          "indexed": false,
          "internalType": "uint256",
          "name": "amount",
          "type": "uint256"
        }
      ],
      "name": "FundsLocked",
      "type": "event"
    },
    {
      "anonymous": false,
      "inputs": [
        {
          "indexed": true,
          "internalType": "bytes32",
          "name": "id",
          "type": "bytes32"
        },
        {
          "indexed": false,
          "internalType": "address",
          "name": "token",
          "type": "address"
        },
        {
          "indexed": false,
          "internalType": "uint256",
          "name": "amount",
          "type": "uint256"
        }
      ],
      "name": "FundsReleased",
      "type": "event"
    },
    {
      "anonymous": false,
      "inputs": [
        {
          "indexed": true,
          "internalType": "bytes32",
          "name": "id",
          "type": "bytes32"
        },
        {
          "indexed": false,
          "internalType": "uint256",
          "name": "milestoneIndex",
          "type": "uint256"
        }
      ],
      "name": "MilestoneReleased",
      "type": "event"
    },
    {
      "anonymous": false,
      "inputs": [
        {
          "indexed": true,
          "internalType": "address",
          "name": "token",
          "type": "address"
        },
        {
          "indexed": false,
          "internalType": "bool",
          "name": "status",
          "type": "bool"
        }
      ],
      "name": "TokenWhitelisted",
      "type": "event"
    },
    {
      "inputs": [],
      "name": "CAMPAIGN_COOLDOWN",
      "outputs": [
        {
          "internalType": "uint256",
          "name": "",
          "type": "uint256"
        }
      ],
      "stateMutability": "view",
      "type": "function"
    },
    {
      "inputs": [],
      "name": "MAX_CAMPAIGNS_PER_USER",
      "outputs": [
        {
          "internalType": "uint256",
          "name": "",
          "type": "uint256"
        }
      ],
      "stateMutability": "view",
      "type": "function"
    },
    {
      "inputs": [],
      "name": "MAX_GOAL",
      "outputs": [
        {
          "internalType": "uint256",
          "name": "",
          "type": "uint256"
        }
      ],
      "stateMutability": "view",
      "type": "function"
    },
    {
      "inputs": [
        {
          "internalType": "address",
          "name": "",
          "type": "address"
        }
      ],
      "name": "activeCampaignCount",
      "outputs": [
        {
          "internalType": "uint256",
          "name": "",
          "type": "uint256"
        }
      ],
      "stateMutability": "view",
      "type": "function"
    },
    {
      "inputs": [
        {
          "internalType": "bytes32",
          "name": "",
          "type": "bytes32"
        },
        {
          "internalType": "address",
          "name": "",
          "type": "address"
        }
      ],
      "name": "backerContributions",
      "outputs": [
        {
          "internalType": "uint256",
          "name": "",
          "type": "uint256"
        }
      ],
      "stateMutability": "view",
      "type": "function"
    },
    {
      "inputs": [
        {
          "internalType": "bytes32",
          "name": "",
          "type": "bytes32"
        },
        {
          "internalType": "uint256",
          "name": "",
          "type": "uint256"
        }
      ],
      "name": "campaignBackers",
      "outputs": [
        {
          "internalType": "address",
          "name": "",
          "type": "address"
        }
      ],
      "stateMutability": "view",
      "type": "function"
    },
    {
      "inputs": [],
      "name": "campaignCount",
      "outputs": [
        {
          "internalType": "uint256",
          "name": "",
          "type": "uint256"
        }
      ],
      "stateMutability": "view",
      "type": "function"
    },
    {
      "inputs": [
        {
          "internalType": "uint256",
          "name": "",
          "type": "uint256"
        }
      ],
      "name": "campaignIds",
      "outputs": [
        {
          "internalType": "bytes32",
          "name": "",
          "type": "bytes32"
        }
      ],
      "stateMutability": "view",
      "type": "function"
    },
    {
      "inputs": [
        {
          "internalType": "bytes32",
          "name": "",
          "type": "bytes32"
        }
      ],
      "name": "campaigns",
      "outputs": [
        {
          "internalType": "uint256",
          "name": "id",
          "type": "uint256"
        },
        {
          "internalType": "bytes32",
          "name": "internalId",
          "type": "bytes32"
        },
        {
          "internalType": "address",
          "name": "creator",
          "type": "address"
        },
        {
          "internalType": "string",
          "name": "title",
          "type": "string"
        },
        {
          "internalType": "string",
          "name": "description",
          "type": "string"
        },
        {
          "internalType": "string",
          "name": "category",
          "type": "string"
        },
        {
          "internalType": "string",
          "name": "image",
          "type": "string"
        },
        {
          "internalType": "uint256",
          "name": "goal",
          "type": "uint256"
        },
        {
          "internalType": "uint256",
          "name": "pledged",
          "type": "uint256"
        },
        {
          "internalType": "string",
          "name": "currency",
          "type": "string"
        },
        {
          "internalType": "uint256",
          "name": "endAt",
          "type": "uint256"
        },
        {
          "internalType": "bool",
          "name": "active",
          "type": "bool"
        }
      ],
      "stateMutability": "view",
      "type": "function"
    },
    {
      "inputs": [
        {
          "internalType": "string",
          "name": "_title",
          "type": "string"
        },
        {
          "internalType": "string",
          "name": "_description",
          "type": "string"
        },
        {
          "internalType": "string",
          "name": "_category",
          "type": "string"
        },
        {
          "internalType": "string",
          "name": "_image",
          "type": "string"
        },
        {
          "internalType": "uint256",
          "name": "_goal",
          "type": "uint256"
        },
        {
          "internalType": "string",
          "name": "_currency",
          "type": "string"
        },
        {
          "internalType": "uint256",
          "name": "_endDate",
          "type": "uint256"
        },
        {
          "components": [
            {
              "internalType": "string",
              "name": "title",
              "type": "string"
            },
            {
              "internalType": "uint256",
              "name": "fundingPercentage",
              "type": "uint256"
            },
            {
              "internalType": "string",
              "name": "description",
              "type": "string"
            },
            {
              "internalType": "bool",
              "name": "released",
              "type": "bool"
            }
          ],
          "internalType": "struct CampaignManager.Milestone[]",
          "name": "_milestones",
          "type": "tuple[]"
        }
      ],
      "name": "createCampaign",
      "outputs": [],
      "stateMutability": "nonpayable",
      "type": "function"
    },
    {
      "inputs": [
        {
          "internalType": "bytes32",
          "name": "id",
          "type": "bytes32"
        }
      ],
      "name": "disableCampaign",
      "outputs": [],
      "stateMutability": "nonpayable",
      "type": "function"
    },
    {
      "inputs": [
        {
          "internalType": "bytes32",
          "name": "campaignId",
          "type": "bytes32"
        },
        {
          "internalType": "address",
          "name": "token",
          "type": "address"
        },
        {
          "internalType": "uint256",
          "name": "amount",
          "type": "uint256"
        }
      ],
      "name": "donate",
      "outputs": [],
      "stateMutability": "payable",
      "type": "function"
    },
    {
      "inputs": [],
      "name": "fundEscrow",
      "outputs": [
        {
          "internalType": "contract IFundEscrow",
          "name": "",
          "type": "address"
        }
      ],
      "stateMutability": "view",
      "type": "function"
    },
    {
      "inputs": [
        {
          "internalType": "bytes32",
          "name": "campaignId",
          "type": "bytes32"
        },
        {
          "internalType": "address",
          "name": "backer",
          "type": "address"
        }
      ],
      "name": "getBackerContribution",
      "outputs": [
        {
          "internalType": "uint256",
          "name": "",
          "type": "uint256"
        }
      ],
      "stateMutability": "view",
      "type": "function"
    },
    {
      "inputs": [
        {
          "internalType": "bytes32",
          "name": "campaignId",
          "type": "bytes32"
        }
      ],
      "name": "getBackerCount",
      "outputs": [
        {
          "internalType": "uint256",
          "name": "",
          "type": "uint256"
        }
      ],
      "stateMutability": "view",
      "type": "function"
    },
    {
      "inputs": [
        {
          "internalType": "bytes32",
          "name": "campaignId",
          "type": "bytes32"
        }
      ],
      "name": "getBackers",
      "outputs": [
        {
          "internalType": "address[]",
          "name": "",
          "type": "address[]"
        }
      ],
      "stateMutability": "view",
      "type": "function"
    },
    {
      "inputs": [],
      "name": "getCampaigns",
      "outputs": [
        {
          "components": [
            {
              "internalType": "uint256",
              "name": "id",
              "type": "uint256"
            },
            {
              "internalType": "bytes32",
              "name": "internalId",
              "type": "bytes32"
            },
            {
              "internalType": "address",
              "name": "creator",
              "type": "address"
            },
            {
              "internalType": "string",
              "name": "title",
              "type": "string"
            },
            {
              "internalType": "string",
              "name": "description",
              "type": "string"
            },
            {
              "internalType": "string",
              "name": "category",
              "type": "string"
            },
            {
              "internalType": "string",
              "name": "image",
              "type": "string"
            },
            {
              "internalType": "uint256",
              "name": "goal",
              "type": "uint256"
            },
            {
              "internalType": "uint256",
              "name": "pledged",
              "type": "uint256"
            },
            {
              "internalType": "string",
              "name": "currency",
              "type": "string"
            },
            {
              "internalType": "uint256",
              "name": "endAt",
              "type": "uint256"
            },
            {
              "internalType": "bool",
              "name": "active",
              "type": "bool"
            }
          ],
          "internalType": "struct CampaignManager.Campaign[]",
          "name": "",
          "type": "tuple[]"
        }
      ],
      "stateMutability": "view",
      "type": "function"
    },
    {
      "inputs": [
        {
          "internalType": "bytes32",
          "name": "campaignId",
          "type": "bytes32"
        }
      ],
      "name": "getMilestones",
      "outputs": [
        {
          "components": [
            {
              "internalType": "string",
              "name": "title",
              "type": "string"
            },
            {
              "internalType": "uint256",
              "name": "fundingPercentage",
              "type": "uint256"
            },
            {
              "internalType": "string",
              "name": "description",
              "type": "string"
            },
            {
              "internalType": "bool",
              "name": "released",
              "type": "bool"
            }
          ],
          "internalType": "struct CampaignManager.Milestone[]",
          "name": "",
          "type": "tuple[]"
        }
      ],
      "stateMutability": "view",
      "type": "function"
    },
    {
      "inputs": [
        {
          "internalType": "address",
          "name": "",
          "type": "address"
        }
      ],
      "name": "lastCreatedAt",
      "outputs": [
        {
          "internalType": "uint256",
          "name": "",
          "type": "uint256"
        }
      ],
      "stateMutability": "view",
      "type": "function"
    },
    {
      "inputs": [
        {
          "internalType": "bytes32",
          "name": "",
          "type": "bytes32"
        },
        {
          "internalType": "uint256",
          "name": "",
          "type": "uint256"
        }
      ],
      "name": "milestones",
      "outputs": [
        {
          "internalType": "string",
          "name": "title",
          "type": "string"
        },
        {
          "internalType": "uint256",
          "name": "fundingPercentage",
          "type": "uint256"
        },
        {
          "internalType": "string",
          "name": "description",
          "type": "string"
        },
        {
          "internalType": "bool",
          "name": "released",
          "type": "bool"
        }
      ],
      "stateMutability": "view",
      "type": "function"
    },
    {
      "inputs": [],
      "name": "owner",
      "outputs": [
        {
          "internalType": "address",
          "name": "",
          "type": "address"
        }
      ],
      "stateMutability": "view",
      "type": "function"
    },
    {
      "inputs": [
        {
          "internalType": "bytes32",
          "name": "campaignId",
          "type": "bytes32"
        },
        {
          "internalType": "uint256",
          "name": "amount",
          "type": "uint256"
        }
      ],
      "name": "recordExternalContribution",
      "outputs": [],
      "stateMutability": "nonpayable",
      "type": "function"
    },
    {
      "inputs": [
        {
          "internalType": "bytes32",
          "name": "campaignId",
          "type": "bytes32"
        },
        {
          "internalType": "address",
          "name": "token",
          "type": "address"
        },
        {
          "internalType": "uint256",
          "name": "milestoneIndex",
          "type": "uint256"
        }
      ],
      "name": "releaseMilestoneFunds",
      "outputs": [],
      "stateMutability": "nonpayable",
      "type": "function"
    },
    {
      "inputs": [],
      "name": "verificationRegistry",
      "outputs": [
        {
          "internalType": "contract IVerificationRegistry",
          "name": "",
          "type": "address"
        }
      ],
      "stateMutability": "view",
      "type": "function"
    },
    {
      "inputs": [
        {
          "internalType": "address",
          "name": "token",
          "type": "address"
        },
        {
          "internalType": "bool",
          "name": "status",
          "type": "bool"
        }
      ],
      "name": "whitelistToken",
      "outputs": [],
      "stateMutability": "nonpayable",
      "type": "function"
    },
    {
      "inputs": [
        {
          "internalType": "bytes32",
          "name": "campaignId",
          "type": "bytes32"
        },
        {
          "internalType": "address",
          "name": "token",
          "type": "address"
        }
      ],
      "name": "withdrawSurplus",
      "outputs": [],
      "stateMutability": "nonpayable",
      "type": "function"
    }
  ],
  "evm": {
    "bytecode": {
      "linkReferences": {},
      "object": "60803461014057601f6128bd38819003918201601f19168301916001600160401b0383118484101761014457808492604094855283398101031261014057610052602061004b83610158565b9201610158565b60015f556001600160a01b039091169081156100fb576001600160a01b03169081156100b657600180546001600160a01b031990811633179091556002805482169290921790915560038054909116919091179055604051612750908161016d8239f35b60405162461bcd60e51b815260206004820152601d60248201527f496e76616c696420766572696669636174696f6e2072656769737472790000006044820152606490fd5b60405162461bcd60e51b815260206004820152601660248201527f496e76616c696420657363726f772061646472657373000000000000000000006044820152606490fd5b5f80fd5b634e487b7160e01b5f52604160045260245ffd5b51906001600160a01b03821682036101405756fe60806040526004361015610011575f80fd5b5f5f3560e01c806308c666b9146122535780630ffb1d8b1461213b57806324adadc914611f335780632ede5cc414611113578063309bb3f2146110ee578063398bfb0e146110a35780633c2df35e14610e1e5780633eec5a8d14610d655780634f16dc2d14610a58578063669c8cba146109ca5780637274e30d146109ac5780637f227c9a146109675780638da5cb5b1461093e57806394f2f52f146109205780639eca2f1e14610802578063a49c9671146107e6578063a5d737ac146107bd578063a6b0363314610501578063b369359d146104c7578063b94afa711461048e578063c1413768146103ce578063c8cf997d146103a4578063e8b8300b1461036b578063ea4a873c14610205578063efa4f8d4146101dc5763f130bcb914610138575f80fd5b346101d95760203660031901126101d957600435808252600560205261016e60018060a01b036002604085200154163314612510565b8082526005602052600b604083200160ff198154169055338252600960205260408220805480156101c5575f190190557f316e34622cfa615d0d1b218fe7f3dd69749a569df4d3f98df57501999e03888b8280a280f35b634e487b7160e01b84526011600452602484fd5b80fd5b50346101d957806003193601126101d9576003546040516001600160a01b039091168152602090f35b50346101d95760203660031901126101d95760043581526007602052604081208054610230816126d1565b9061023e60405192836123f2565b8082526020820190819385526020852085925b8284106102f157868587604051928392602084019060208552518091526040840160408260051b8601019392905b82821061028e57505050500390f35b919360019193955060208091603f198982030185528751906060806102d96102bf85516080865260808601906124b3565b8686015187860152604086015185820360408701526124b3565b9301511515910152960192019201859493919261027f565b604051608081018181106001600160401b038211176103575760019260049260209260405261031f86612413565b8152848601548382015261033560028701612413565b604082015260ff60038701541615156060820152815201920193019290610251565b634e487b7160e01b89526041600452602489fd5b50346101d95760203660031901126101d9576020906040906001600160a01b036103936122ad565b168152600983522054604051908152f35b50346101d95760203660031901126101d95760406020916004358152600a83522054604051908152f35b50346101d9576103dd3661231a565b6103f260018060a01b036001541633146124d7565b81835260056020526040832061040e60ff600b83015416612691565b8115610458577f15144217405064631de951752111334f6d9db4be6cfff45346f7068ea857fcad916008604092016104478282546125bf565b90558151908582526020820152a280f35b60405162461bcd60e51b815260206004820152600e60248201526d125b9d985b1a5908185b5bdd5b9d60921b6044820152606490fd5b50346101d95760203660031901126101d9576020906040906001600160a01b036104b66122ad565b168152600883522054604051908152f35b50346101d95760203660031901126101d957600435906006548210156101d95760206104f283612330565b90549060031b1c604051908152f35b50346101d957806003193601126101d95760065461051e816126d1565b9061052c60405192836123f2565b808252601f1961053b826126d1565b01835b818110610756575050825b81811061066c5782846040519182916020830160208452825180915260408401602060408360051b870101940192905b82821061058857505050500390f35b919360019193955060208091603f19898203018552875190815181528282015183820152848060a01b0360408301511660408201526101608061064861061e61060c6105fa6105e8606089015161018060608a01526101808901906124b3565b608089015188820360808a01526124b3565b60a088015187820360a08901526124b3565b60c087015186820360c08801526124b3565b60e086015160e08601526101008601516101008601526101208601518582036101208701526124b3565b93610140810151610140850152015115159101529601920192018594939192610579565b80610678600192612330565b90549060031b1c855260056020526040852060ff600b6040519261069b846123c2565b80548452858101546020850152858060a01b0360028201541660408501526106c560038201612413565b60608501526106d660048201612413565b60808501526106e760058201612413565b60a08501526106f860068201612413565b60c0850152600781015460e0850152600881015461010085015261071e60098201612413565b610120850152600a810154610140850152015416151561016082015261074482866126e8565b5261074f81856126e8565b5001610549565b602090604051610765816123c2565b868152868382015286604082015260608082015260606080820152606060a0820152606060c08201528660e082015286610100820152606061012082015286610140820152866101608201528282870101520161053e565b50346101d957806003193601126101d9576002546040516001600160a01b039091168152602090f35b50346101d957806003193601126101d957602060405160058152f35b50346101d95760203660031901126101d95760043581526005602052604090208054600182015460028301549092906001600160a01b031661084660038301612413565b61085260048401612413565b61085e60058501612413565b9061086b60068601612413565b6007860154926008870154926009880161088490612413565b95600a89015498600b015460ff16976040519b8c9b8c5260208c015260408b015260608a0161018090526101808a016108bc916124b3565b89810360808b01526108cd916124b3565b88810360a08a01526108de916124b3565b87810360c08901526108ef916124b3565b9160e087015261010086015284810361012086015261090d916124b3565b9161014084015215156101608301520390f35b50346101d957806003193601126101d9576020604051620151808152f35b50346101d957806003193601126101d9576001546040516001600160a01b039091168152602090f35b50346101d95760403660031901126101d9576040610983612297565b916004358152600b602052209060018060a01b03165f52602052602060405f2054604051908152f35b50346101d957806003193601126101d9576020600454604051908152f35b50346101d9576109d93661231a565b919081526007602052604081209081548310156101d957610a396109fd8484612371565b50610a0781612413565b90610a4c600182015460ff6003610a2060028601612413565b94015416926040519586956080875260808701906124b3565b91602086015284820360408601526124b3565b90151560608301520390f35b50610a62366122c3565b90610a6b6126fc565b828452600560205260408420610a8760ff600b83015416612691565b8215610d2b5760025460405163da51fdcb60e01b8152600481018690526001600160a01b0390911690602081602481855afa908115610d20578791610d01575b5015610cbc57604051634f71877560e11b81526001600160a01b03841660048201523360248201526044810186905260648101859052906020908290608490829034905af1908115610cb1578691610c82575b5015610c4f57838552600b60209081526040808720335f908152925290205415610bc7575b9060087f15144217405064631de951752111334f6d9db4be6cfff45346f7068ea857fcad9392858752600b6020526040872060018060a01b0333165f5260205260405f20610b8e8582546125bf565b905501610b9c8382546125bf565b9055604080516001600160a01b039092168252602082019290925290819081015b0390a26001815580f35b838552600a60205260408520805490600160401b821015610c3b5791610c18827f15144217405064631de951752111334f6d9db4be6cfff45346f7068ea857fcad969594600160089501815561235c565b81549060031b9033821b9160018060a01b03901b19161790559192935050610b3f565b634e487b7160e01b87526041600452602487fd5b60405162461bcd60e51b815260206004820152600b60248201526a131bd8dac819985a5b195960aa1b6044820152606490fd5b610ca4915060203d602011610caa575b610c9c81836123f2565b810190612553565b5f610b1a565b503d610c92565b6040513d88823e3d90fd5b60405162461bcd60e51b815260206004820152601860248201527f4e6f74207265676973746572656420696e20657363726f7700000000000000006044820152606490fd5b610d1a915060203d602011610caa57610c9c81836123f2565b5f610ac7565b6040513d89823e3d90fd5b60405162461bcd60e51b81526020600482015260126024820152710416d6f756e74206d757374206265203e20360741b6044820152606490fd5b50346101d95760203660031901126101d9576004358152600a60205260408120604051908160208254918281520190819285526020852090855b818110610dff5750505082610db59103836123f2565b604051928392602084019060208552518091526040840192915b818110610ddd575050500390f35b82516001600160a01b0316845285945060209384019390920191600101610dcf565b82546001600160a01b0316845260209093019260019283019201610d9f565b50346101d95760403660031901126101d957600435610e3b612297565b8183526005602052610e5d60018060a01b036002604086200154163314612510565b610e656126fc565b818352600760205260408320805490845b82811061103f575050600254604051634991fb4f60e11b8152600481018590526001600160a01b03848116602483015290925016602082604481845afa918215610fbe578592611007575b508115610fc957604051638a6f659b60e01b81526001600160a01b03841660048201526024810185905260448101839052906020908290606490829089905af1908115610fbe578591610f9f575b5015610f5a57604080516001600160a01b03909316835260208301919091527f75d86e5bfa1175e2dc677f3abe3aebba3069f2db6ae492f1734d4b4bc65f61c1919081908101610bbd565b60405162461bcd60e51b815260206004820152601960248201527f537572706c7573207769746864726177616c206661696c6564000000000000006044820152606490fd5b610fb8915060203d602011610caa57610c9c81836123f2565b5f610f0f565b6040513d87823e3d90fd5b60405162461bcd60e51b81526020600482015260166024820152754e6f20737572706c757320746f20776974686472617760501b6044820152606490fd5b9091506020813d602011611037575b81611023602093836123f2565b810103126110335751905f610ec1565b8480fd5b3d9150611016565b60ff600361104d8385612371565b500154161561105e57600101610e76565b60405162461bcd60e51b815260206004820152601b60248201527f4d696c6573746f6e6573206e6f7420616c6c2072656c656173656400000000006044820152606490fd5b50346101d9576110b23661231a565b91908152600a602052604081209081548310156101d95760206110d5848461235c565b905460405160039290921b1c6001600160a01b03168152f35b50346101d957806003193601126101d957602060405169d3c21bcecceda10000008152f35b50346101d9576101003660031901126101d9576004356001600160401b038111611687576111459036906004016122ed565b906024356001600160401b038111611f2f576111659036906004016122ed565b916044356001600160401b038111611f2b576111859036906004016122ed565b90946064356001600160401b038111611f27576111a69036906004016122ed565b60849591953560a4356001600160401b038111611f23576111cb9036906004016122ed565b9260e435986001600160401b038a11611f1f573660238b011215611f1f5789600401359a6001600160401b038c11611f1b578b6024808d019c369260051b010111611f1b576003548e906001600160a01b031680611e64575b506040600591338152600960205220541015611e15578715611ddb578015611d96578815611d59578515611d1c578415611ce45769d3c21bcecceda10000008511611ca7574260c4351115611c62578b15611c1d578d805b8d8d818410611b985750506064915003611b45578d9760045461129e906125e0565b928360045560405160208101903060601b82523360601b6034820152856048820152604881526112cf6068826123f2565b5190209e8f9b8c9a6040519e8f976112e6896123c2565b8852602088019c8d5260408801953387523690611302926125ee565b95606088019687523690611315926125ee565b956080019586523690611327926125ee565b9460a08d01958652369061133a926125ee565b9460c08c0195865260e08c019687526101008c01978a8952369061135d926125ee565b976101208c019889526101408c019960c4358b526101608d019b60018d5281526005602052604090209b518c555160018c015560028b0190600160a01b600190039051166bffffffffffffffffffffffff60a01b82541617905560038a01905180516001600160401b038111611b30578f6113e2826113dc865461238a565b86612633565b602090601f8311600114611ace579061140f93836118f5575b50508160011b915f199060031b1c19161790565b90555b60048901905180516001600160401b038111611aba578e611437826113dc865461238a565b602090601f8311600114611a58579061146393836118f55750508160011b915f199060031b1c19161790565b90555b60058801905180516001600160401b038111611a44576114908161148a855461238a565b85612633565b60208e6001601f8411146119e257906114bc93836118f55750508160011b915f199060031b1c19161790565b90555b60068701905180516001600160401b0381116119ce576114e38161148a855461238a565b60208d601f831160011461196c579061150f93836118f55750508160011b915f199060031b1c19161790565b90555b51600786015551600885015551805160098501916001600160401b038211611842576115428261148a855461238a565b6020908a601f841160011461190057928061159a9897959361157b93600b9896926118f55750508160011b915f199060031b1c19161790565b90555b51600a84015551151591019060ff801983541691151516179055565b600654600160401b8110156118e1578060016115b99201600655612330565b81549060031b9085821b915f19901b1916179055835b8281106116965750506002548391506001600160a01b0316803b156116875760405163993e589160e01b8152600481018490523360248201529082908290604490829084905af1801561168b57611672575b505033907f56419e16617c73fd93c78ff2bdc4b1dc1dae51571a63e868c6fdab1e9b244f328380a3338152600860205242604082205533815260096020526040812061166d81546125e0565b905580f35b8161167c916123f2565b61168757815f611621565b5080fd5b6040513d84823e3d90fd5b838552600760205260408520906116ae81858561256b565b91805490600160401b8210156118cd57906116ce91600182018155612371565b9290926118b9576116df818061258d565b906001600160401b03821161035757611702826116fc875461238a565b87612633565b8890601f83116001146118565761172f92918a91836117d05750508160011b915f199060031b1c19161790565b83555b602081013560018401556002830161174d604083018361258d565b906001600160401b0382116118425761176a8261148a855461238a565b8990601f83116001146117db57918061179c9260609695948d926117d05750508160011b915f199060031b1c19161790565b90555b01359182151583036117cc5760019260036117c692019060ff801983541691151516179055565b016115cf565b8680fd5b013590505f806113fb565b838b5260208b2091601f1984168c5b81811061182a575091600193918560609897969410611811575b505050811b01905561179f565b01355f19600384901b60f8161c191690555f8080611804565b919360206001819287870135815501950192016117ea565b634e487b7160e01b8a52604160045260248afd5b858a5260208a2091601f1984168b5b8181106118a15750908460019594939210611888575b505050811b018355611732565b01355f19600384901b60f8161c191690555f808061187b565b91936020600181928787013581550195019201611865565b634e487b7160e01b87526004879052602487fd5b634e487b7160e01b88526041600452602488fd5b634e487b7160e01b85526041600452602485fd5b015190505f806113fb565b50838b52818b209190601f1984168c5b8181106119545750926001928592600b989661159a9b9a98961061193c575b505050811b01905561157e565b01515f1960f88460031b161c191690555f808061192f565b92936020600181928786015181550195019301611910565b9192601f198416858452828420935b8181106119b6575090846001959493921061199e575b505050811b019055611512565b01515f1960f88460031b161c191690555f8080611991565b9293602060018192878601518155019501930161197b565b634e487b7160e01b8d52604160045260248dfd5b9192601f198416858452828420935b818110611a2c5750908460019594939210611a14575b505050811b0190556114bf565b01515f1960f88460031b161c191690555f8080611a07565b929360206001819287860151815501950193016119f1565b634e487b7160e01b8e52604160045260248efd5b9192601f198416858452828420935b818110611aa25750908460019594939210611a8a575b505050811b019055611466565b01515f1960f88460031b161c191690555f8080611a7d565b92936020600181928786015181550195019301611a67565b634e487b7160e01b8f52604160045260248ffd5b9192601f198416858452828420935b818110611b185750908460019594939210611b00575b505050811b019055611412565b01515f1960f88460031b161c191690555f8080611af3565b92936020600181928786015181550195019301611add565b50634e487b7160e01b8f52604160045260248ffd5b60405162461bcd60e51b815260206004820152602560248201527f4d696c6573746f6e652070657263656e7461676573206d7573742073756d207460448201526406f203130360dc1b6064820152608490fd5b83611bac92611ba69261256b565b8061258d565b905015611bd857611bd06001918f8f85602092611bc89261256b565b0135906125bf565b91019061127c565b60405162461bcd60e51b815260206004820152601860248201527f4d696c6573746f6e65207469746c6520726571756972656400000000000000006044820152606490fd5b60405162461bcd60e51b815260206004820152601860248201527f4d696c6573746f6e657320617265206d616e6461746f727900000000000000006044820152606490fd5b60405162461bcd60e51b815260206004820152601a60248201527f456e642064617465206d75737420626520696e206675747572650000000000006044820152606490fd5b60405162461bcd60e51b815260206004820152601560248201527411dbd85b08195e18d959591cc80c53481b1a5b5a5d605a1b6044820152606490fd5b60405162461bcd60e51b815260206004820152601060248201526f0476f616c206d757374206265203e20360841b6044820152606490fd5b60405162461bcd60e51b815260206004820152601560248201527443757272656e6379206973206d616e6461746f727960581b6044820152606490fd5b60405162461bcd60e51b815260206004820152601560248201527443617465676f7279206973206d616e6461746f727960581b6044820152606490fd5b60405162461bcd60e51b815260206004820152601860248201527f4465736372697074696f6e206973206d616e6461746f727900000000000000006044820152606490fd5b60405162461bcd60e51b81526020600482015260126024820152715469746c65206973206d616e6461746f727960701b6044820152606490fd5b60405162461bcd60e51b815260206004820152602160248201527f4c696d69743a2035206163746976652063616d706169676e73207265616368656044820152601960fa1b6064820152608490fd5b60206024916040519283809263b9209e3360e01b82523360048301525afa918215611f0f5791611ef0575b5015611e9c578d5f611224565b60405162461bcd60e51b815260206004820152602660248201527f43726561746f72206d75737420636f6d706c657465204b59432076657269666960448201526531b0ba34b7b760d11b6064820152608490fd5b611f09915060203d602011610caa57610c9c81836123f2565b5f611e8f565b604051903d90823e3d90fd5b8d80fd5b8c80fd5b8a80fd5b8780fd5b8580fd5b8380fd5b50346101d957611f42366122c3565b908284526005602052611f6560018060a01b036002604087200154163314612510565b611f6d6126fc565b8284526007602052611f828260408620612371565b5091600383019260ff8454166120f657848652600560205260016007604088200154910154908181029181830414901517156120e257600254604051638a6f659b60e01b81526001600160a01b0385811660048301526024820188905260649384900460448301819052959391926020928492909183918c91165af1908115610d205787916120c3575b501561208d57835460ff1916600117909355604080516001600160a01b0390941684526020808501939093527fe158232688e2ab3f6175f941292adf66d1f345f74e71bfcf3b974507f4e33fc79385917f75d86e5bfa1175e2dc677f3abe3aebba3069f2db6ae492f1734d4b4bc65f61c191a2604051908152a26001815580f35b60405162461bcd60e51b815260206004820152600e60248201526d14995b19585cd94819985a5b195960921b6044820152606490fd5b6120dc915060203d602011610caa57610c9c81836123f2565b5f61200c565b634e487b7160e01b86526011600452602486fd5b60405162461bcd60e51b815260206004820152601a60248201527f4d696c6573746f6e6520616c72656164792072656c65617365640000000000006044820152606490fd5b503461221a57604036600319011261221a576121556122ad565b6024359081151580920361221a5761217860018060a01b036001541633146124d7565b6001600160a01b031690811561221e576002546001600160a01b0316803b1561221a575f8091604460405180948193630ffb1d8b60e01b83528860048401528760248401525af1801561220f576121f9575b5060207fef81a9943b96c8df4ef243401c9bf5159146166211356898b52d382086168d9291604051908152a280f35b6122069193505f906123f2565b5f9160206121ca565b6040513d5f823e3d90fd5b5f80fd5b60405162461bcd60e51b815260206004820152600d60248201526c24b73b30b634b2103a37b5b2b760991b6044820152606490fd5b3461221a57604036600319011261221a5761226c612297565b6004355f52600b60205260405f209060018060a01b03165f52602052602060405f2054604051908152f35b602435906001600160a01b038216820361221a57565b600435906001600160a01b038216820361221a57565b606090600319011261221a57600435906024356001600160a01b038116810361221a579060443590565b9181601f8401121561221a578235916001600160401b03831161221a576020838186019501011161221a57565b604090600319011261221a576004359060243590565b6006548110156123485760065f5260205f2001905f90565b634e487b7160e01b5f52603260045260245ffd5b8054821015612348575f5260205f2001905f90565b8054821015612348575f5260205f209060021b01905f90565b90600182811c921680156123b8575b60208310146123a457565b634e487b7160e01b5f52602260045260245ffd5b91607f1691612399565b61018081019081106001600160401b038211176123de57604052565b634e487b7160e01b5f52604160045260245ffd5b90601f801991011681019081106001600160401b038211176123de57604052565b9060405191825f8254926124268461238a565b8084529360018116908115612491575060011461244d575b5061244b925003836123f2565b565b90505f9291925260205f20905f915b81831061247557505090602061244b928201015f61243e565b602091935080600191548385890101520191019091849261245c565b90506020925061244b94915060ff191682840152151560051b8201015f61243e565b805180835260209291819084018484015e5f828201840152601f01601f1916010190565b156124de57565b60405162461bcd60e51b815260206004820152600a60248201526927b7363c9037bbb732b960b11b6044820152606490fd5b1561251757565b60405162461bcd60e51b81526020600482015260146024820152732737ba1031b0b6b830b4b3b71031b932b0ba37b960611b6044820152606490fd5b9081602091031261221a5751801515810361221a5790565b91908110156123485760051b81013590607e198136030182121561221a570190565b903590601e198136030182121561221a57018035906001600160401b03821161221a5760200191813603831361221a57565b919082018092116125cc57565b634e487b7160e01b5f52601160045260245ffd5b5f1981146125cc5760010190565b9291926001600160401b0382116123de5760405191612617601f8201601f1916602001846123f2565b82948184528183011161221a578281602093845f960137010152565b919091601f8311612644575b505050565b81831161265057505050565b5f5260205f206020601f830160051c9210612689575b81601f9101920160051c03905f5b8281101561263f575f82820155600101612674565b5f9150612666565b1561269857565b60405162461bcd60e51b815260206004820152601160248201527024b730b1ba34bb329031b0b6b830b4b3b760791b6044820152606490fd5b6001600160401b0381116123de5760051b60200190565b80518210156123485760209160051b010190565b60025f541461270b5760025f55565b633ee5aeb560e01b5f5260045ffdfea264697066735822122067a5eed2c443d3289419b988e84176e6ae530fa86a93748ef58e7fcbbfba5e3364736f6c63430008210033",
      "opcodes": "PUSH1 0x80 CALLVALUE PUSH2 0x140 JUMPI PUSH1 0x1F PUSH2 0x28BD CODESIZE DUP2 SWAP1 SUB SWAP2 DUP3 ADD PUSH1 0x1F NOT AND DUP4 ADD SWAP2 PUSH1 0x1 PUSH1 0x1 PUSH1 0x40 SHL SUB DUP4 GT DUP5 DUP5 LT OR PUSH2 0x144 JUMPI DUP1 DUP5 SWAP3 PUSH1 0x40 SWAP5 DUP6 MSTORE DUP4 CODECOPY DUP2 ADD SUB SLT PUSH2 0x140 JUMPI PUSH2 0x52 PUSH1 0x20 PUSH2 0x4B DUP4 PUSH2 0x158 JUMP JUMPDEST SWAP3 ADD PUSH2 0x158 JUMP JUMPDEST PUSH1 0x1 PUSH0 SSTORE PUSH1 0x1 PUSH1 0x1 PUSH1 0xA0 SHL SUB SWAP1 SWAP2 AND SWAP1 DUP2 ISZERO PUSH2 0xFB JUMPI PUSH1 0x1 PUSH1 0x1 PUSH1 0xA0 SHL SUB AND SWAP1 DUP2 ISZERO PUSH2 0xB6 JUMPI PUSH1 0x1 DUP1 SLOAD PUSH1 0x1 PUSH1 0x1 PUSH1 0xA0 SHL SUB NOT SWAP1 DUP2 AND CALLER OR SWAP1 SWAP2 SSTORE PUSH1 0x2 DUP1 SLOAD DUP3 AND SWAP3 SWAP1 SWAP3 OR SWAP1 SWAP2 SSTORE PUSH1 0x3 DUP1 SLOAD SWAP1 SWAP2 AND SWAP2 SWAP1 SWAP2 OR SWAP1 SSTORE PUSH1 0x40 MLOAD PUSH2 0x2750 SWAP1 DUP2 PUSH2 0x16D DUP3 CODECOPY RETURN JUMPDEST PUSH1 0x40 MLOAD PUSH3 0x461BCD PUSH1 0xE5 SHL DUP2 MSTORE PUSH1 0x20 PUSH1 0x4 DUP3 ADD MSTORE PUSH1 0x1D PUSH1 0x24 DUP3 ADD MSTORE PUSH32 0x496E76616C696420766572696669636174696F6E207265676973747279000000 PUSH1 0x44 DUP3 ADD MSTORE PUSH1 0x64 SWAP1 REVERT JUMPDEST PUSH1 0x40 MLOAD PUSH3 0x461BCD PUSH1 0xE5 SHL DUP2 MSTORE PUSH1 0x20 PUSH1 0x4 DUP3 ADD MSTORE PUSH1 0x16 PUSH1 0x24 DUP3 ADD MSTORE PUSH32 0x496E76616C696420657363726F77206164647265737300000000000000000000 PUSH1 0x44 DUP3 ADD MSTORE PUSH1 0x64 SWAP1 REVERT JUMPDEST PUSH0 DUP1 REVERT JUMPDEST PUSH4 0x4E487B71 PUSH1 0xE0 SHL PUSH0 MSTORE PUSH1 0x41 PUSH1 0x4 MSTORE PUSH1 0x24 PUSH0 REVERT JUMPDEST MLOAD SWAP1 PUSH1 0x1 PUSH1 0x1 PUSH1 0xA0 SHL SUB DUP3 AND DUP3 SUB PUSH2 0x140 JUMPI JUMP INVALID PUSH1 0x80 PUSH1 0x40 MSTORE PUSH1 0x4 CALLDATASIZE LT ISZERO PUSH2 0x11 JUMPI PUSH0 DUP1 REVERT JUMPDEST PUSH0 PUSH0 CALLDATALOAD PUSH1 0xE0 SHR DUP1 PUSH4 0x8C666B9 EQ PUSH2 0x2253 JUMPI DUP1 PUSH4 0xFFB1D8B EQ PUSH2 0x213B JUMPI DUP1 PUSH4 0x24ADADC9 EQ PUSH2 0x1F33 JUMPI DUP1 PUSH4 0x2EDE5CC4 EQ PUSH2 0x1113 JUMPI DUP1 PUSH4 0x309BB3F2 EQ PUSH2 0x10EE JUMPI DUP1 PUSH4 0x398BFB0E EQ PUSH2 0x10A3 JUMPI DUP1 PUSH4 0x3C2DF35E EQ PUSH2 0xE1E JUMPI DUP1 PUSH4 0x3EEC5A8D EQ PUSH2 0xD65 JUMPI DUP1 PUSH4 0x4F16DC2D EQ PUSH2 0xA58 JUMPI DUP1 PUSH4 0x669C8CBA EQ PUSH2 0x9CA JUMPI DUP1 PUSH4 0x7274E30D EQ PUSH2 0x9AC JUMPI DUP1 PUSH4 0x7F227C9A EQ PUSH2 0x967 JUMPI DUP1 PUSH4 0x8DA5CB5B EQ PUSH2 0x93E JUMPI DUP1 PUSH4 0x94F2F52F EQ PUSH2 0x920 JUMPI DUP1 PUSH4 0x9ECA2F1E EQ PUSH2 0x802 JUMPI DUP1 PUSH4 0xA49C9671 EQ PUSH2 0x7E6 JUMPI DUP1 PUSH4 0xA5D737AC EQ PUSH2 0x7BD JUMPI DUP1 PUSH4 0xA6B03633 EQ PUSH2 0x501 JUMPI DUP1 PUSH4 0xB369359D EQ PUSH2 0x4C7 JUMPI DUP1 PUSH4 0xB94AFA71 EQ PUSH2 0x48E JUMPI DUP1 PUSH4 0xC1413768 EQ PUSH2 0x3CE JUMPI DUP1 PUSH4 0xC8CF997D EQ PUSH2 0x3A4 JUMPI DUP1 PUSH4 0xE8B8300B EQ PUSH2 0x36B JUMPI DUP1 PUSH4 0xEA4A873C EQ PUSH2 0x205 JUMPI DUP1 PUSH4 0xEFA4F8D4 EQ PUSH2 0x1DC JUMPI PUSH4 0xF130BCB9 EQ PUSH2 0x138 JUMPI PUSH0 DUP1 REVERT JUMPDEST CALLVALUE PUSH2 0x1D9 JUMPI PUSH1 0x20 CALLDATASIZE PUSH1 0x3 NOT ADD SLT PUSH2 0x1D9 JUMPI PUSH1 0x4 CALLDATALOAD DUP1 DUP3 MSTORE PUSH1 0x5 PUSH1 0x20 MSTORE PUSH2 0x16E PUSH1 0x1 DUP1 PUSH1 0xA0 SHL SUB PUSH1 0x2 PUSH1 0x40 DUP6 KECCAK256 ADD SLOAD AND CALLER EQ PUSH2 0x2510 JUMP JUMPDEST DUP1 DUP3 MSTORE PUSH1 0x5 PUSH1 0x20 MSTORE PUSH1 0xB PUSH1 0x40 DUP4 KECCAK256 ADD PUSH1 0xFF NOT DUP2 SLOAD AND SWAP1 SSTORE CALLER DUP3 MSTORE PUSH1 0x9 PUSH1 0x20 MSTORE PUSH1 0x40 DUP3 KECCAK256 DUP1 SLOAD DUP1 ISZERO PUSH2 0x1C5 JUMPI PUSH0 NOT ADD SWAP1 SSTORE PUSH32 0x316E34622CFA615D0D1B218FE7F3DD69749A569DF4D3F98DF57501999E03888B DUP3 DUP1 LOG2 DUP1 RETURN JUMPDEST PUSH4 0x4E487B71 PUSH1 0xE0 SHL DUP5 MSTORE PUSH1 0x11 PUSH1 0x4 MSTORE PUSH1 0x24 DUP5 REVERT JUMPDEST DUP1 REVERT JUMPDEST POP CALLVALUE PUSH2 0x1D9 JUMPI DUP1 PUSH1 0x3 NOT CALLDATASIZE ADD SLT PUSH2 0x1D9 JUMPI PUSH1 0x3 SLOAD PUSH1 0x40 MLOAD PUSH1 0x1 PUSH1 0x1 PUSH1 0xA0 SHL SUB SWAP1 SWAP2 AND DUP2 MSTORE PUSH1 0x20 SWAP1 RETURN JUMPDEST POP CALLVALUE PUSH2 0x1D9 JUMPI PUSH1 0x20 CALLDATASIZE PUSH1 0x3 NOT ADD SLT PUSH2 0x1D9 JUMPI PUSH1 0x4 CALLDATALOAD DUP2 MSTORE PUSH1 0x7 PUSH1 0x20 MSTORE PUSH1 0x40 DUP2 KECCAK256 DUP1 SLOAD PUSH2 0x230 DUP2 PUSH2 0x26D1 JUMP JUMPDEST SWAP1 PUSH2 0x23E PUSH1 0x40 MLOAD SWAP3 DUP4 PUSH2 0x23F2 JUMP JUMPDEST DUP1 DUP3 MSTORE PUSH1 0x20 DUP3 ADD SWAP1 DUP2 SWAP4 DUP6 MSTORE PUSH1 0x20 DUP6 KECCAK256 DUP6 SWAP3 JUMPDEST DUP3 DUP5 LT PUSH2 0x2F1 JUMPI DUP7 DUP6 DUP8 PUSH1 0x40 MLOAD SWAP3 DUP4 SWAP3 PUSH1 0x20 DUP5 ADD SWAP1 PUSH1 0x20 DUP6 MSTORE MLOAD DUP1 SWAP2 MSTORE PUSH1 0x40 DUP5 ADD PUSH1 0x40 DUP3 PUSH1 0x5 SHL DUP7 ADD ADD SWAP4 SWAP3 SWAP1 JUMPDEST DUP3 DUP3 LT PUSH2 0x28E JUMPI POP POP POP POP SUB SWAP1 RETURN JUMPDEST SWAP2 SWAP4 PUSH1 0x1 SWAP2 SWAP4 SWAP6 POP PUSH1 0x20 DUP1 SWAP2 PUSH1 0x3F NOT DUP10 DUP3 SUB ADD DUP6 MSTORE DUP8 MLOAD SWAP1 PUSH1 0x60 DUP1 PUSH2 0x2D9 PUSH2 0x2BF DUP6 MLOAD PUSH1 0x80 DUP7 MSTORE PUSH1 0x80 DUP7 ADD SWAP1 PUSH2 0x24B3 JUMP JUMPDEST DUP7 DUP7 ADD MLOAD DUP8 DUP7 ADD MSTORE PUSH1 0x40 DUP7 ADD MLOAD DUP6 DUP3 SUB PUSH1 0x40 DUP8 ADD MSTORE PUSH2 0x24B3 JUMP JUMPDEST SWAP4 ADD MLOAD ISZERO ISZERO SWAP2 ADD MSTORE SWAP7 ADD SWAP3 ADD SWAP3 ADD DUP6 SWAP5 SWAP4 SWAP2 SWAP3 PUSH2 0x27F JUMP JUMPDEST PUSH1 0x40 MLOAD PUSH1 0x80 DUP2 ADD DUP2 DUP2 LT PUSH1 0x1 PUSH1 0x1 PUSH1 0x40 SHL SUB DUP3 GT OR PUSH2 0x357 JUMPI PUSH1 0x1 SWAP3 PUSH1 0x4 SWAP3 PUSH1 0x20 SWAP3 PUSH1 0x40 MSTORE PUSH2 0x31F DUP7 PUSH2 0x2413 JUMP JUMPDEST DUP2 MSTORE DUP5 DUP7 ADD SLOAD DUP4 DUP3 ADD MSTORE PUSH2 0x335 PUSH1 0x2 DUP8 ADD PUSH2 0x2413 JUMP JUMPDEST PUSH1 0x40 DUP3 ADD MSTORE PUSH1 0xFF PUSH1 0x3 DUP8 ADD SLOAD AND ISZERO ISZERO PUSH1 0x60 DUP3 ADD MSTORE DUP2 MSTORE ADD SWAP3 ADD SWAP4 ADD SWAP3 SWAP1 PUSH2 0x251 JUMP JUMPDEST PUSH4 0x4E487B71 PUSH1 0xE0 SHL DUP10 MSTORE PUSH1 0x41 PUSH1 0x4 MSTORE PUSH1 0x24 DUP10 REVERT JUMPDEST POP CALLVALUE PUSH2 0x1D9 JUMPI PUSH1 0x20 CALLDATASIZE PUSH1 0x3 NOT ADD SLT PUSH2 0x1D9 JUMPI PUSH1 0x20 SWAP1 PUSH1 0x40 SWAP1 PUSH1 0x1 PUSH1 0x1 PUSH1 0xA0 SHL SUB PUSH2 0x393 PUSH2 0x22AD JUMP JUMPDEST AND DUP2 MSTORE PUSH1 0x9 DUP4 MSTORE KECCAK256 SLOAD PUSH1 0x40 MLOAD SWAP1 DUP2 MSTORE RETURN JUMPDEST POP CALLVALUE PUSH2 0x1D9 JUMPI PUSH1 0x20 CALLDATASIZE PUSH1 0x3 NOT ADD SLT PUSH2 0x1D9 JUMPI PUSH1 0x40 PUSH1 0x20 SWAP2 PUSH1 0x4 CALLDATALOAD DUP2 MSTORE PUSH1 0xA DUP4 MSTORE KECCAK256 SLOAD PUSH1 0x40 MLOAD SWAP1 DUP2 MSTORE RETURN JUMPDEST POP CALLVALUE PUSH2 0x1D9 JUMPI PUSH2 0x3DD CALLDATASIZE PUSH2 0x231A JUMP JUMPDEST PUSH2 0x3F2 PUSH1 0x1 DUP1 PUSH1 0xA0 SHL SUB PUSH1 0x1 SLOAD AND CALLER EQ PUSH2 0x24D7 JUMP JUMPDEST DUP2 DUP4 MSTORE PUSH1 0x5 PUSH1 0x20 MSTORE PUSH1 0x40 DUP4 KECCAK256 PUSH2 0x40E PUSH1 0xFF PUSH1 0xB DUP4 ADD SLOAD AND PUSH2 0x2691 JUMP JUMPDEST DUP2 ISZERO PUSH2 0x458 JUMPI PUSH32 0x15144217405064631DE951752111334F6D9DB4BE6CFFF45346F7068EA857FCAD SWAP2 PUSH1 0x8 PUSH1 0x40 SWAP3 ADD PUSH2 0x447 DUP3 DUP3 SLOAD PUSH2 0x25BF JUMP JUMPDEST SWAP1 SSTORE DUP2 MLOAD SWAP1 DUP6 DUP3 MSTORE PUSH1 0x20 DUP3 ADD MSTORE LOG2 DUP1 RETURN JUMPDEST PUSH1 0x40 MLOAD PUSH3 0x461BCD PUSH1 0xE5 SHL DUP2 MSTORE PUSH1 0x20 PUSH1 0x4 DUP3 ADD MSTORE PUSH1 0xE PUSH1 0x24 DUP3 ADD MSTORE PUSH14 0x125B9D985B1A5908185B5BDD5B9D PUSH1 0x92 SHL PUSH1 0x44 DUP3 ADD MSTORE PUSH1 0x64 SWAP1 REVERT JUMPDEST POP CALLVALUE PUSH2 0x1D9 JUMPI PUSH1 0x20 CALLDATASIZE PUSH1 0x3 NOT ADD SLT PUSH2 0x1D9 JUMPI PUSH1 0x20 SWAP1 PUSH1 0x40 SWAP1 PUSH1 0x1 PUSH1 0x1 PUSH1 0xA0 SHL SUB PUSH2 0x4B6 PUSH2 0x22AD JUMP JUMPDEST AND DUP2 MSTORE PUSH1 0x8 DUP4 MSTORE KECCAK256 SLOAD PUSH1 0x40 MLOAD SWAP1 DUP2 MSTORE RETURN JUMPDEST POP CALLVALUE PUSH2 0x1D9 JUMPI PUSH1 0x20 CALLDATASIZE PUSH1 0x3 NOT ADD SLT PUSH2 0x1D9 JUMPI PUSH1 0x4 CALLDATALOAD SWAP1 PUSH1 0x6 SLOAD DUP3 LT ISZERO PUSH2 0x1D9 JUMPI PUSH1 0x20 PUSH2 0x4F2 DUP4 PUSH2 0x2330 JUMP JUMPDEST SWAP1 SLOAD SWAP1 PUSH1 0x3 SHL SHR PUSH1 0x40 MLOAD SWAP1 DUP2 MSTORE RETURN JUMPDEST POP CALLVALUE PUSH2 0x1D9 JUMPI DUP1 PUSH1 0x3 NOT CALLDATASIZE ADD SLT PUSH2 0x1D9 JUMPI PUSH1 0x6 SLOAD PUSH2 0x51E DUP2 PUSH2 0x26D1 JUMP JUMPDEST SWAP1 PUSH2 0x52C PUSH1 0x40 MLOAD SWAP3 DUP4 PUSH2 0x23F2 JUMP JUMPDEST DUP1 DUP3 MSTORE PUSH1 0x1F NOT PUSH2 0x53B DUP3 PUSH2 0x26D1 JUMP JUMPDEST ADD DUP4 JUMPDEST DUP2 DUP2 LT PUSH2 0x756 JUMPI POP POP DUP3 JUMPDEST DUP2 DUP2 LT PUSH2 0x66C JUMPI DUP3 DUP5 PUSH1 0x40 MLOAD SWAP2 DUP3 SWAP2 PUSH1 0x20 DUP4 ADD PUSH1 0x20 DUP5 MSTORE DUP3 MLOAD DUP1 SWAP2 MSTORE PUSH1 0x40 DUP5 ADD PUSH1 0x20 PUSH1 0x40 DUP4 PUSH1 0x5 SHL DUP8 ADD ADD SWAP5 ADD SWAP3 SWAP1 JUMPDEST DUP3 DUP3 LT PUSH2 0x588 JUMPI POP POP POP POP SUB SWAP1 RETURN JUMPDEST SWAP2 SWAP4 PUSH1 0x1 SWAP2 SWAP4 SWAP6 POP PUSH1 0x20 DUP1 SWAP2 PUSH1 0x3F NOT DUP10 DUP3 SUB ADD DUP6 MSTORE DUP8 MLOAD SWAP1 DUP2 MLOAD DUP2 MSTORE DUP3 DUP3 ADD MLOAD DUP4 DUP3 ADD MSTORE DUP5 DUP1 PUSH1 0xA0 SHL SUB PUSH1 0x40 DUP4 ADD MLOAD AND PUSH1 0x40 DUP3 ADD MSTORE PUSH2 0x160 DUP1 PUSH2 0x648 PUSH2 0x61E PUSH2 0x60C PUSH2 0x5FA PUSH2 0x5E8 PUSH1 0x60 DUP10 ADD MLOAD PUSH2 0x180 PUSH1 0x60 DUP11 ADD MSTORE PUSH2 0x180 DUP10 ADD SWAP1 PUSH2 0x24B3 JUMP JUMPDEST PUSH1 0x80 DUP10 ADD MLOAD DUP9 DUP3 SUB PUSH1 0x80 DUP11 ADD MSTORE PUSH2 0x24B3 JUMP JUMPDEST PUSH1 0xA0 DUP9 ADD MLOAD DUP8 DUP3 SUB PUSH1 0xA0 DUP10 ADD MSTORE PUSH2 0x24B3 JUMP JUMPDEST PUSH1 0xC0 DUP8 ADD MLOAD DUP7 DUP3 SUB PUSH1 0xC0 DUP9 ADD MSTORE PUSH2 0x24B3 JUMP JUMPDEST PUSH1 0xE0 DUP7 ADD MLOAD PUSH1 0xE0 DUP7 ADD MSTORE PUSH2 0x100 DUP7 ADD MLOAD PUSH2 0x100 DUP7 ADD MSTORE PUSH2 0x120 DUP7 ADD MLOAD DUP6 DUP3 SUB PUSH2 0x120 DUP8 ADD MSTORE PUSH2 0x24B3 JUMP JUMPDEST SWAP4 PUSH2 0x140 DUP2 ADD MLOAD PUSH2 0x140 DUP6 ADD MSTORE ADD MLOAD ISZERO ISZERO SWAP2 ADD MSTORE SWAP7 ADD SWAP3 ADD SWAP3 ADD DUP6 SWAP5 SWAP4 SWAP2 SWAP3 PUSH2 0x579 JUMP JUMPDEST DUP1 PUSH2 0x678 PUSH1 0x1 SWAP3 PUSH2 0x2330 JUMP JUMPDEST SWAP1 SLOAD SWAP1 PUSH1 0x3 SHL SHR DUP6 MSTORE PUSH1 0x5 PUSH1 0x20 MSTORE PUSH1 0x40 DUP6 KECCAK256 PUSH1 0xFF PUSH1 0xB PUSH1 0x40 MLOAD SWAP3 PUSH2 0x69B DUP5 PUSH2 0x23C2 JUMP JUMPDEST DUP1 SLOAD DUP5 MSTORE DUP6 DUP2 ADD SLOAD PUSH1 0x20 DUP6 ADD MSTORE DUP6 DUP1 PUSH1 0xA0 SHL SUB PUSH1 0x2 DUP3 ADD SLOAD AND PUSH1 0x40 DUP6 ADD MSTORE PUSH2 0x6C5 PUSH1 0x3 DUP3 ADD PUSH2 0x2413 JUMP JUMPDEST PUSH1 0x60 DUP6 ADD MSTORE PUSH2 0x6D6 PUSH1 0x4 DUP3 ADD PUSH2 0x2413 JUMP JUMPDEST PUSH1 0x80 DUP6 ADD MSTORE PUSH2 0x6E7 PUSH1 0x5 DUP3 ADD PUSH2 0x2413 JUMP JUMPDEST PUSH1 0xA0 DUP6 ADD MSTORE PUSH2 0x6F8 PUSH1 0x6 DUP3 ADD PUSH2 0x2413 JUMP JUMPDEST PUSH1 0xC0 DUP6 ADD MSTORE PUSH1 0x7 DUP2 ADD SLOAD PUSH1 0xE0 DUP6 ADD MSTORE PUSH1 0x8 DUP2 ADD SLOAD PUSH2 0x100 DUP6 ADD MSTORE PUSH2 0x71E PUSH1 0x9 DUP3 ADD PUSH2 0x2413 JUMP JUMPDEST PUSH2 0x120 DUP6 ADD MSTORE PUSH1 0xA DUP2 ADD SLOAD PUSH2 0x140 DUP6 ADD MSTORE ADD SLOAD AND ISZERO ISZERO PUSH2 0x160 DUP3 ADD MSTORE PUSH2 0x744 DUP3 DUP7 PUSH2 0x26E8 JUMP JUMPDEST MSTORE PUSH2 0x74F DUP2 DUP6 PUSH2 0x26E8 JUMP JUMPDEST POP ADD PUSH2 0x549 JUMP JUMPDEST PUSH1 0x20 SWAP1 PUSH1 0x40 MLOAD PUSH2 0x765 DUP2 PUSH2 0x23C2 JUMP JUMPDEST DUP7 DUP2 MSTORE DUP7 DUP4 DUP3 ADD MSTORE DUP7 PUSH1 0x40 DUP3 ADD MSTORE PUSH1 0x60 DUP1 DUP3 ADD MSTORE PUSH1 0x60 PUSH1 0x80 DUP3 ADD MSTORE PUSH1 0x60 PUSH1 0xA0 DUP3 ADD MSTORE PUSH1 0x60 PUSH1 0xC0 DUP3 ADD MSTORE DUP7 PUSH1 0xE0 DUP3 ADD MSTORE DUP7 PUSH2 0x100 DUP3 ADD MSTORE PUSH1 0x60 PUSH2 0x120 DUP3 ADD MSTORE DUP7 PUSH2 0x140 DUP3 ADD MSTORE DUP7 PUSH2 0x160 DUP3 ADD MSTORE DUP3 DUP3 DUP8 ADD ADD MSTORE ADD PUSH2 0x53E JUMP JUMPDEST POP CALLVALUE PUSH2 0x1D9 JUMPI DUP1 PUSH1 0x3 NOT CALLDATASIZE ADD SLT PUSH2 0x1D9 JUMPI PUSH1 0x2 SLOAD PUSH1 0x40 MLOAD PUSH1 0x1 PUSH1 0x1 PUSH1 0xA0 SHL SUB SWAP1 SWAP2 AND DUP2 MSTORE PUSH1 0x20 SWAP1 RETURN JUMPDEST POP CALLVALUE PUSH2 0x1D9 JUMPI DUP1 PUSH1 0x3 NOT CALLDATASIZE ADD SLT PUSH2 0x1D9 JUMPI PUSH1 0x20 PUSH1 0x40 MLOAD PUSH1 0x5 DUP2 MSTORE RETURN JUMPDEST POP CALLVALUE PUSH2 0x1D9 JUMPI PUSH1 0x20 CALLDATASIZE PUSH1 0x3 NOT ADD SLT PUSH2 0x1D9 JUMPI PUSH1 0x4 CALLDATALOAD DUP2 MSTORE PUSH1 0x5 PUSH1 0x20 MSTORE PUSH1 0x40 SWAP1 KECCAK256 DUP1 SLOAD PUSH1 0x1 DUP3 ADD SLOAD PUSH1 0x2 DUP4 ADD SLOAD SWAP1 SWAP3 SWAP1 PUSH1 0x1 PUSH1 0x1 PUSH1 0xA0 SHL SUB AND PUSH2 0x846 PUSH1 0x3 DUP4 ADD PUSH2 0x2413 JUMP JUMPDEST PUSH2 0x852 PUSH1 0x4 DUP5 ADD PUSH2 0x2413 JUMP JUMPDEST PUSH2 0x85E PUSH1 0x5 DUP6 ADD PUSH2 0x2413 JUMP JUMPDEST SWAP1 PUSH2 0x86B PUSH1 0x6 DUP7 ADD PUSH2 0x2413 JUMP JUMPDEST PUSH1 0x7 DUP7 ADD SLOAD SWAP3 PUSH1 0x8 DUP8 ADD SLOAD SWAP3 PUSH1 0x9 DUP9 ADD PUSH2 0x884 SWAP1 PUSH2 0x2413 JUMP JUMPDEST SWAP6 PUSH1 0xA DUP10 ADD SLOAD SWAP9 PUSH1 0xB ADD SLOAD PUSH1 0xFF AND SWAP8 PUSH1 0x40 MLOAD SWAP12 DUP13 SWAP12 DUP13 MSTORE PUSH1 0x20 DUP13 ADD MSTORE PUSH1 0x40 DUP12 ADD MSTORE PUSH1 0x60 DUP11 ADD PUSH2 0x180 SWAP1 MSTORE PUSH2 0x180 DUP11 ADD PUSH2 0x8BC SWAP2 PUSH2 0x24B3 JUMP JUMPDEST DUP10 DUP2 SUB PUSH1 0x80 DUP12 ADD MSTORE PUSH2 0x8CD SWAP2 PUSH2 0x24B3 JUMP JUMPDEST DUP9 DUP2 SUB PUSH1 0xA0 DUP11 ADD MSTORE PUSH2 0x8DE SWAP2 PUSH2 0x24B3 JUMP JUMPDEST DUP8 DUP2 SUB PUSH1 0xC0 DUP10 ADD MSTORE PUSH2 0x8EF SWAP2 PUSH2 0x24B3 JUMP JUMPDEST SWAP2 PUSH1 0xE0 DUP8 ADD MSTORE PUSH2 0x100 DUP7 ADD MSTORE DUP5 DUP2 SUB PUSH2 0x120 DUP7 ADD MSTORE PUSH2 0x90D SWAP2 PUSH2 0x24B3 JUMP JUMPDEST SWAP2 PUSH2 0x140 DUP5 ADD MSTORE ISZERO ISZERO PUSH2 0x160 DUP4 ADD MSTORE SUB SWAP1 RETURN JUMPDEST POP CALLVALUE PUSH2 0x1D9 JUMPI DUP1 PUSH1 0x3 NOT CALLDATASIZE ADD SLT PUSH2 0x1D9 JUMPI PUSH1 0x20 PUSH1 0x40 MLOAD PUSH3 0x15180 DUP2 MSTORE RETURN JUMPDEST POP CALLVALUE PUSH2 0x1D9 JUMPI DUP1 PUSH1 0x3 NOT CALLDATASIZE ADD SLT PUSH2 0x1D9 JUMPI PUSH1 0x1 SLOAD PUSH1 0x40 MLOAD PUSH1 0x1 PUSH1 0x1 PUSH1 0xA0 SHL SUB SWAP1 SWAP2 AND DUP2 MSTORE PUSH1 0x20 SWAP1 RETURN JUMPDEST POP CALLVALUE PUSH2 0x1D9 JUMPI PUSH1 0x40 CALLDATASIZE PUSH1 0x3 NOT ADD SLT PUSH2 0x1D9 JUMPI PUSH1 0x40 PUSH2 0x983 PUSH2 0x2297 JUMP JUMPDEST SWAP2 PUSH1 0x4 CALLDATALOAD DUP2 MSTORE PUSH1 0xB PUSH1 0x20 MSTORE KECCAK256 SWAP1 PUSH1 0x1 DUP1 PUSH1 0xA0 SHL SUB AND PUSH0 MSTORE PUSH1 0x20 MSTORE PUSH1 0x20 PUSH1 0x40 PUSH0 KECCAK256 SLOAD PUSH1 0x40 MLOAD SWAP1 DUP2 MSTORE RETURN JUMPDEST POP CALLVALUE PUSH2 0x1D9 JUMPI DUP1 PUSH1 0x3 NOT CALLDATASIZE ADD SLT PUSH2 0x1D9 JUMPI PUSH1 0x20 PUSH1 0x4 SLOAD PUSH1 0x40 MLOAD SWAP1 DUP2 MSTORE RETURN JUMPDEST POP CALLVALUE PUSH2 0x1D9 JUMPI PUSH2 0x9D9 CALLDATASIZE PUSH2 0x231A JUMP JUMPDEST SWAP2 SWAP1 DUP2 MSTORE PUSH1 0x7 PUSH1 0x20 MSTORE PUSH1 0x40 DUP2 KECCAK256 SWAP1 DUP2 SLOAD DUP4 LT ISZERO PUSH2 0x1D9 JUMPI PUSH2 0xA39 PUSH2 0x9FD DUP5 DUP5 PUSH2 0x2371 JUMP JUMPDEST POP PUSH2 0xA07 DUP2 PUSH2 0x2413 JUMP JUMPDEST SWAP1 PUSH2 0xA4C PUSH1 0x1 DUP3 ADD SLOAD PUSH1 0xFF PUSH1 0x3 PUSH2 0xA20 PUSH1 0x2 DUP7 ADD PUSH2 0x2413 JUMP JUMPDEST SWAP5 ADD SLOAD AND SWAP3 PUSH1 0x40 MLOAD SWAP6 DUP7 SWAP6 PUSH1 0x80 DUP8 MSTORE PUSH1 0x80 DUP8 ADD SWAP1 PUSH2 0x24B3 JUMP JUMPDEST SWAP2 PUSH1 0x20 DUP7 ADD MSTORE DUP5 DUP3 SUB PUSH1 0x40 DUP7 ADD MSTORE PUSH2 0x24B3 JUMP JUMPDEST SWAP1 ISZERO ISZERO PUSH1 0x60 DUP4 ADD MSTORE SUB SWAP1 RETURN JUMPDEST POP PUSH2 0xA62 CALLDATASIZE PUSH2 0x22C3 JUMP JUMPDEST SWAP1 PUSH2 0xA6B PUSH2 0x26FC JUMP JUMPDEST DUP3 DUP5 MSTORE PUSH1 0x5 PUSH1 0x20 MSTORE PUSH1 0x40 DUP5 KECCAK256 PUSH2 0xA87 PUSH1 0xFF PUSH1 0xB DUP4 ADD SLOAD AND PUSH2 0x2691 JUMP JUMPDEST DUP3 ISZERO PUSH2 0xD2B JUMPI PUSH1 0x2 SLOAD PUSH1 0x40 MLOAD PUSH4 0xDA51FDCB PUSH1 0xE0 SHL DUP2 MSTORE PUSH1 0x4 DUP2 ADD DUP7 SWAP1 MSTORE PUSH1 0x1 PUSH1 0x1 PUSH1 0xA0 SHL SUB SWAP1 SWAP2 AND SWAP1 PUSH1 0x20 DUP2 PUSH1 0x24 DUP2 DUP6 GAS STATICCALL SWAP1 DUP2 ISZERO PUSH2 0xD20 JUMPI DUP8 SWAP2 PUSH2 0xD01 JUMPI JUMPDEST POP ISZERO PUSH2 0xCBC JUMPI PUSH1 0x40 MLOAD PUSH4 0x4F718775 PUSH1 0xE1 SHL DUP2 MSTORE PUSH1 0x1 PUSH1 0x1 PUSH1 0xA0 SHL SUB DUP5 AND PUSH1 0x4 DUP3 ADD MSTORE CALLER PUSH1 0x24 DUP3 ADD MSTORE PUSH1 0x44 DUP2 ADD DUP7 SWAP1 MSTORE PUSH1 0x64 DUP2 ADD DUP6 SWAP1 MSTORE SWAP1 PUSH1 0x20 SWAP1 DUP3 SWAP1 PUSH1 0x84 SWAP1 DUP3 SWAP1 CALLVALUE SWAP1 GAS CALL SWAP1 DUP2 ISZERO PUSH2 0xCB1 JUMPI DUP7 SWAP2 PUSH2 0xC82 JUMPI JUMPDEST POP ISZERO PUSH2 0xC4F JUMPI DUP4 DUP6 MSTORE PUSH1 0xB PUSH1 0x20 SWAP1 DUP2 MSTORE PUSH1 0x40 DUP1 DUP8 KECCAK256 CALLER PUSH0 SWAP1 DUP2 MSTORE SWAP3 MSTORE SWAP1 KECCAK256 SLOAD ISZERO PUSH2 0xBC7 JUMPI JUMPDEST SWAP1 PUSH1 0x8 PUSH32 0x15144217405064631DE951752111334F6D9DB4BE6CFFF45346F7068EA857FCAD SWAP4 SWAP3 DUP6 DUP8 MSTORE PUSH1 0xB PUSH1 0x20 MSTORE PUSH1 0x40 DUP8 KECCAK256 PUSH1 0x1 DUP1 PUSH1 0xA0 SHL SUB CALLER AND PUSH0 MSTORE PUSH1 0x20 MSTORE PUSH1 0x40 PUSH0 KECCAK256 PUSH2 0xB8E DUP6 DUP3 SLOAD PUSH2 0x25BF JUMP JUMPDEST SWAP1 SSTORE ADD PUSH2 0xB9C DUP4 DUP3 SLOAD PUSH2 0x25BF JUMP JUMPDEST SWAP1 SSTORE PUSH1 0x40 DUP1 MLOAD PUSH1 0x1 PUSH1 0x1 PUSH1 0xA0 SHL SUB SWAP1 SWAP3 AND DUP3 MSTORE PUSH1 0x20 DUP3 ADD SWAP3 SWAP1 SWAP3 MSTORE SWAP1 DUP2 SWAP1 DUP2 ADD JUMPDEST SUB SWAP1 LOG2 PUSH1 0x1 DUP2 SSTORE DUP1 RETURN JUMPDEST DUP4 DUP6 MSTORE PUSH1 0xA PUSH1 0x20 MSTORE PUSH1 0x40 DUP6 KECCAK256 DUP1 SLOAD SWAP1 PUSH1 0x1 PUSH1 0x40 SHL DUP3 LT ISZERO PUSH2 0xC3B JUMPI SWAP2 PUSH2 0xC18 DUP3 PUSH32 0x15144217405064631DE951752111334F6D9DB4BE6CFFF45346F7068EA857FCAD SWAP7 SWAP6 SWAP5 PUSH1 0x1 PUSH1 0x8 SWAP6 ADD DUP2 SSTORE PUSH2 0x235C JUMP JUMPDEST DUP2 SLOAD SWAP1 PUSH1 0x3 SHL SWAP1 CALLER DUP3 SHL SWAP2 PUSH1 0x1 DUP1 PUSH1 0xA0 SHL SUB SWAP1 SHL NOT AND OR SWAP1 SSTORE SWAP2 SWAP3 SWAP4 POP POP PUSH2 0xB3F JUMP JUMPDEST PUSH4 0x4E487B71 PUSH1 0xE0 SHL DUP8 MSTORE PUSH1 0x41 PUSH1 0x4 MSTORE PUSH1 0x24 DUP8 REVERT JUMPDEST PUSH1 0x40 MLOAD PUSH3 0x461BCD PUSH1 0xE5 SHL DUP2 MSTORE PUSH1 0x20 PUSH1 0x4 DUP3 ADD MSTORE PUSH1 0xB PUSH1 0x24 DUP3 ADD MSTORE PUSH11 0x131BD8DAC819985A5B1959 PUSH1 0xAA SHL PUSH1 0x44 DUP3 ADD MSTORE PUSH1 0x64 SWAP1 REVERT JUMPDEST PUSH2 0xCA4 SWAP2 POP PUSH1 0x20 RETURNDATASIZE PUSH1 0x20 GT PUSH2 0xCAA JUMPI JUMPDEST PUSH2 0xC9C DUP2 DUP4 PUSH2 0x23F2 JUMP JUMPDEST DUP2 ADD SWAP1 PUSH2 0x2553 JUMP JUMPDEST PUSH0 PUSH2 0xB1A JUMP JUMPDEST POP RETURNDATASIZE PUSH2 0xC92 JUMP JUMPDEST PUSH1 0x40 MLOAD RETURNDATASIZE DUP9 DUP3 RETURNDATACOPY RETURNDATASIZE SWAP1 REVERT JUMPDEST PUSH1 0x40 MLOAD PUSH3 0x461BCD PUSH1 0xE5 SHL DUP2 MSTORE PUSH1 0x20 PUSH1 0x4 DUP3 ADD MSTORE PUSH1 0x18 PUSH1 0x24 DUP3 ADD MSTORE PUSH32 0x4E6F74207265676973746572656420696E20657363726F770000000000000000 PUSH1 0x44 DUP3 ADD MSTORE PUSH1 0x64 SWAP1 REVERT JUMPDEST PUSH2 0xD1A SWAP2 POP PUSH1 0x20 RETURNDATASIZE PUSH1 0x20 GT PUSH2 0xCAA JUMPI PUSH2 0xC9C DUP2 DUP4 PUSH2 0x23F2 JUMP JUMPDEST PUSH0 PUSH2 0xAC7 JUMP JUMPDEST PUSH1 0x40 MLOAD RETURNDATASIZE DUP10 DUP3 RETURNDATACOPY RETURNDATASIZE SWAP1 REVERT JUMPDEST PUSH1 0x40 MLOAD PUSH3 0x461BCD PUSH1 0xE5 SHL DUP2 MSTORE PUSH1 0x20 PUSH1 0x4 DUP3 ADD MSTORE PUSH1 0x12 PUSH1 0x24 DUP3 ADD MSTORE PUSH18 0x416D6F756E74206D757374206265203E203 PUSH1 0x74 SHL PUSH1 0x44 DUP3 ADD MSTORE PUSH1 0x64 SWAP1 REVERT JUMPDEST POP CALLVALUE PUSH2 0x1D9 JUMPI PUSH1 0x20 CALLDATASIZE PUSH1 0x3 NOT ADD SLT PUSH2 0x1D9 JUMPI PUSH1 0x4 CALLDATALOAD DUP2 MSTORE PUSH1 0xA PUSH1 0x20 MSTORE PUSH1 0x40 DUP2 KECCAK256 PUSH1 0x40 MLOAD SWAP1 DUP2 PUSH1 0x20 DUP3 SLOAD SWAP2 DUP3 DUP2 MSTORE ADD SWAP1 DUP2 SWAP3 DUP6 MSTORE PUSH1 0x20 DUP6 KECCAK256 SWAP1 DUP6 JUMPDEST DUP2 DUP2 LT PUSH2 0xDFF JUMPI POP POP POP DUP3 PUSH2 0xDB5 SWAP2 SUB DUP4 PUSH2 0x23F2 JUMP JUMPDEST PUSH1 0x40 MLOAD SWAP3 DUP4 SWAP3 PUSH1 0x20 DUP5 ADD SWAP1 PUSH1 0x20 DUP6 MSTORE MLOAD DUP1 SWAP2 MSTORE PUSH1 0x40 DUP5 ADD SWAP3 SWAP2 JUMPDEST DUP2 DUP2 LT PUSH2 0xDDD JUMPI POP POP POP SUB SWAP1 RETURN JUMPDEST DUP3 MLOAD PUSH1 0x1 PUSH1 0x1 PUSH1 0xA0 SHL SUB AND DUP5 MSTORE DUP6 SWAP5 POP PUSH1 0x20 SWAP4 DUP5 ADD SWAP4 SWAP1 SWAP3 ADD SWAP2 PUSH1 0x1 ADD PUSH2 0xDCF JUMP JUMPDEST DUP3 SLOAD PUSH1 0x1 PUSH1 0x1 PUSH1 0xA0 SHL SUB AND DUP5 MSTORE PUSH1 0x20 SWAP1 SWAP4 ADD SWAP3 PUSH1 0x1 SWAP3 DUP4 ADD SWAP3 ADD PUSH2 0xD9F JUMP JUMPDEST POP CALLVALUE PUSH2 0x1D9 JUMPI PUSH1 0x40 CALLDATASIZE PUSH1 0x3 NOT ADD SLT PUSH2 0x1D9 JUMPI PUSH1 0x4 CALLDATALOAD PUSH2 0xE3B PUSH2 0x2297 JUMP JUMPDEST DUP2 DUP4 MSTORE PUSH1 0x5 PUSH1 0x20 MSTORE PUSH2 0xE5D PUSH1 0x1 DUP1 PUSH1 0xA0 SHL SUB PUSH1 0x2 PUSH1 0x40 DUP7 KECCAK256 ADD SLOAD AND CALLER EQ PUSH2 0x2510 JUMP JUMPDEST PUSH2 0xE65 PUSH2 0x26FC JUMP JUMPDEST DUP2 DUP4 MSTORE PUSH1 0x7 PUSH1 0x20 MSTORE PUSH1 0x40 DUP4 KECCAK256 DUP1 SLOAD SWAP1 DUP5 JUMPDEST DUP3 DUP2 LT PUSH2 0x103F JUMPI POP POP PUSH1 0x2 SLOAD PUSH1 0x40 MLOAD PUSH4 0x4991FB4F PUSH1 0xE1 SHL DUP2 MSTORE PUSH1 0x4 DUP2 ADD DUP6 SWAP1 MSTORE PUSH1 0x1 PUSH1 0x1 PUSH1 0xA0 SHL SUB DUP5 DUP2 AND PUSH1 0x24 DUP4 ADD MSTORE SWAP1 SWAP3 POP AND PUSH1 0x20 DUP3 PUSH1 0x44 DUP2 DUP5 GAS STATICCALL SWAP2 DUP3 ISZERO PUSH2 0xFBE JUMPI DUP6 SWAP3 PUSH2 0x1007 JUMPI JUMPDEST POP DUP2 ISZERO PUSH2 0xFC9 JUMPI PUSH1 0x40 MLOAD PUSH4 0x8A6F659B PUSH1 0xE0 SHL DUP2 MSTORE PUSH1 0x1 PUSH1 0x1 PUSH1 0xA0 SHL SUB DUP5 AND PUSH1 0x4 DUP3 ADD MSTORE PUSH1 0x24 DUP2 ADD DUP6 SWAP1 MSTORE PUSH1 0x44 DUP2 ADD DUP4 SWAP1 MSTORE SWAP1 PUSH1 0x20 SWAP1 DUP3 SWAP1 PUSH1 0x64 SWAP1 DUP3 SWAP1 DUP10 SWAP1 GAS CALL SWAP1 DUP2 ISZERO PUSH2 0xFBE JUMPI DUP6 SWAP2 PUSH2 0xF9F JUMPI JUMPDEST POP ISZERO PUSH2 0xF5A JUMPI PUSH1 0x40 DUP1 MLOAD PUSH1 0x1 PUSH1 0x1 PUSH1 0xA0 SHL SUB SWAP1 SWAP4 AND DUP4 MSTORE PUSH1 0x20 DUP4 ADD SWAP2 SWAP1 SWAP2 MSTORE PUSH32 0x75D86E5BFA1175E2DC677F3ABE3AEBBA3069F2DB6AE492F1734D4B4BC65F61C1 SWAP2 SWAP1 DUP2 SWAP1 DUP2 ADD PUSH2 0xBBD JUMP JUMPDEST PUSH1 0x40 MLOAD PUSH3 0x461BCD PUSH1 0xE5 SHL DUP2 MSTORE PUSH1 0x20 PUSH1 0x4 DUP3 ADD MSTORE PUSH1 0x19 PUSH1 0x24 DUP3 ADD MSTORE PUSH32 0x537572706C7573207769746864726177616C206661696C656400000000000000 PUSH1 0x44 DUP3 ADD MSTORE PUSH1 0x64 SWAP1 REVERT JUMPDEST PUSH2 0xFB8 SWAP2 POP PUSH1 0x20 RETURNDATASIZE PUSH1 0x20 GT PUSH2 0xCAA JUMPI PUSH2 0xC9C DUP2 DUP4 PUSH2 0x23F2 JUMP JUMPDEST PUSH0 PUSH2 0xF0F JUMP JUMPDEST PUSH1 0x40 MLOAD RETURNDATASIZE DUP8 DUP3 RETURNDATACOPY RETURNDATASIZE SWAP1 REVERT JUMPDEST PUSH1 0x40 MLOAD PUSH3 0x461BCD PUSH1 0xE5 SHL DUP2 MSTORE PUSH1 0x20 PUSH1 0x4 DUP3 ADD MSTORE PUSH1 0x16 PUSH1 0x24 DUP3 ADD MSTORE PUSH22 0x4E6F20737572706C757320746F207769746864726177 PUSH1 0x50 SHL PUSH1 0x44 DUP3 ADD MSTORE PUSH1 0x64 SWAP1 REVERT JUMPDEST SWAP1 SWAP2 POP PUSH1 0x20 DUP2 RETURNDATASIZE PUSH1 0x20 GT PUSH2 0x1037 JUMPI JUMPDEST DUP2 PUSH2 0x1023 PUSH1 0x20 SWAP4 DUP4 PUSH2 0x23F2 JUMP JUMPDEST DUP2 ADD SUB SLT PUSH2 0x1033 JUMPI MLOAD SWAP1 PUSH0 PUSH2 0xEC1 JUMP JUMPDEST DUP5 DUP1 REVERT JUMPDEST RETURNDATASIZE SWAP2 POP PUSH2 0x1016 JUMP JUMPDEST PUSH1 0xFF PUSH1 0x3 PUSH2 0x104D DUP4 DUP6 PUSH2 0x2371 JUMP JUMPDEST POP ADD SLOAD AND ISZERO PUSH2 0x105E JUMPI PUSH1 0x1 ADD PUSH2 0xE76 JUMP JUMPDEST PUSH1 0x40 MLOAD PUSH3 0x461BCD PUSH1 0xE5 SHL DUP2 MSTORE PUSH1 0x20 PUSH1 0x4 DUP3 ADD MSTORE PUSH1 0x1B PUSH1 0x24 DUP3 ADD MSTORE PUSH32 0x4D696C6573746F6E6573206E6F7420616C6C2072656C65617365640000000000 PUSH1 0x44 DUP3 ADD MSTORE PUSH1 0x64 SWAP1 REVERT JUMPDEST POP CALLVALUE PUSH2 0x1D9 JUMPI PUSH2 0x10B2 CALLDATASIZE PUSH2 0x231A JUMP JUMPDEST SWAP2 SWAP1 DUP2 MSTORE PUSH1 0xA PUSH1 0x20 MSTORE PUSH1 0x40 DUP2 KECCAK256 SWAP1 DUP2 SLOAD DUP4 LT ISZERO PUSH2 0x1D9 JUMPI PUSH1 0x20 PUSH2 0x10D5 DUP5 DUP5 PUSH2 0x235C JUMP JUMPDEST SWAP1 SLOAD PUSH1 0x40 MLOAD PUSH1 0x3 SWAP3 SWAP1 SWAP3 SHL SHR PUSH1 0x1 PUSH1 0x1 PUSH1 0xA0 SHL SUB AND DUP2 MSTORE RETURN JUMPDEST POP CALLVALUE PUSH2 0x1D9 JUMPI DUP1 PUSH1 0x3 NOT CALLDATASIZE ADD SLT PUSH2 0x1D9 JUMPI PUSH1 0x20 PUSH1 0x40 MLOAD PUSH10 0xD3C21BCECCEDA1000000 DUP2 MSTORE RETURN JUMPDEST POP CALLVALUE PUSH2 0x1D9 JUMPI PUSH2 0x100 CALLDATASIZE PUSH1 0x3 NOT ADD SLT PUSH2 0x1D9 JUMPI PUSH1 0x4 CALLDATALOAD PUSH1 0x1 PUSH1 0x1 PUSH1 0x40 SHL SUB DUP2 GT PUSH2 0x1687 JUMPI PUSH2 0x1145 SWAP1 CALLDATASIZE SWAP1 PUSH1 0x4 ADD PUSH2 0x22ED JUMP JUMPDEST SWAP1 PUSH1 0x24 CALLDATALOAD PUSH1 0x1 PUSH1 0x1 PUSH1 0x40 SHL SUB DUP2 GT PUSH2 0x1F2F JUMPI PUSH2 0x1165 SWAP1 CALLDATASIZE SWAP1 PUSH1 0x4 ADD PUSH2 0x22ED JUMP JUMPDEST SWAP2 PUSH1 0x44 CALLDATALOAD PUSH1 0x1 PUSH1 0x1 PUSH1 0x40 SHL SUB DUP2 GT PUSH2 0x1F2B JUMPI PUSH2 0x1185 SWAP1 CALLDATASIZE SWAP1 PUSH1 0x4 ADD PUSH2 0x22ED JUMP JUMPDEST SWAP1 SWAP5 PUSH1 0x64 CALLDATALOAD PUSH1 0x1 PUSH1 0x1 PUSH1 0x40 SHL SUB DUP2 GT PUSH2 0x1F27 JUMPI PUSH2 0x11A6 SWAP1 CALLDATASIZE SWAP1 PUSH1 0x4 ADD PUSH2 0x22ED JUMP JUMPDEST PUSH1 0x84 SWAP6 SWAP2 SWAP6 CALLDATALOAD PUSH1 0xA4 CALLDATALOAD PUSH1 0x1 PUSH1 0x1 PUSH1 0x40 SHL SUB DUP2 GT PUSH2 0x1F23 JUMPI PUSH2 0x11CB SWAP1 CALLDATASIZE SWAP1 PUSH1 0x4 ADD PUSH2 0x22ED JUMP JUMPDEST SWAP3 PUSH1 0xE4 CALLDATALOAD SWAP9 PUSH1 0x1 PUSH1 0x1 PUSH1 0x40 SHL SUB DUP11 GT PUSH2 0x1F1F JUMPI CALLDATASIZE PUSH1 0x23 DUP12 ADD SLT ISZERO PUSH2 0x1F1F JUMPI DUP10 PUSH1 0x4 ADD CALLDATALOAD SWAP11 PUSH1 0x1 PUSH1 0x1 PUSH1 0x40 SHL SUB DUP13 GT PUSH2 0x1F1B JUMPI DUP12 PUSH1 0x24 DUP1 DUP14 ADD SWAP13 CALLDATASIZE SWAP3 PUSH1 0x5 SHL ADD ADD GT PUSH2 0x1F1B JUMPI PUSH1 0x3 SLOAD DUP15 SWAP1 PUSH1 0x1 PUSH1 0x1 PUSH1 0xA0 SHL SUB AND DUP1 PUSH2 0x1E64 JUMPI JUMPDEST POP PUSH1 0x40 PUSH1 0x5 SWAP2 CALLER DUP2 MSTORE PUSH1 0x9 PUSH1 0x20 MSTORE KECCAK256 SLOAD LT ISZERO PUSH2 0x1E15 JUMPI DUP8 ISZERO PUSH2 0x1DDB JUMPI DUP1 ISZERO PUSH2 0x1D96 JUMPI DUP9 ISZERO PUSH2 0x1D59 JUMPI DUP6 ISZERO PUSH2 0x1D1C JUMPI DUP5 ISZERO PUSH2 0x1CE4 JUMPI PUSH10 0xD3C21BCECCEDA1000000 DUP6 GT PUSH2 0x1CA7 JUMPI TIMESTAMP PUSH1 0xC4 CALLDATALOAD GT ISZERO PUSH2 0x1C62 JUMPI DUP12 ISZERO PUSH2 0x1C1D JUMPI DUP14 DUP1 JUMPDEST DUP14 DUP14 DUP2 DUP5 LT PUSH2 0x1B98 JUMPI POP POP PUSH1 0x64 SWAP2 POP SUB PUSH2 0x1B45 JUMPI DUP14 SWAP8 PUSH1 0x4 SLOAD PUSH2 0x129E SWAP1 PUSH2 0x25E0 JUMP JUMPDEST SWAP3 DUP4 PUSH1 0x4 SSTORE PUSH1 0x40 MLOAD PUSH1 0x20 DUP2 ADD SWAP1 ADDRESS PUSH1 0x60 SHL DUP3 MSTORE CALLER PUSH1 0x60 SHL PUSH1 0x34 DUP3 ADD MSTORE DUP6 PUSH1 0x48 DUP3 ADD MSTORE PUSH1 0x48 DUP2 MSTORE PUSH2 0x12CF PUSH1 0x68 DUP3 PUSH2 0x23F2 JUMP JUMPDEST MLOAD SWAP1 KECCAK256 SWAP15 DUP16 SWAP12 DUP13 SWAP11 PUSH1 0x40 MLOAD SWAP15 DUP16 SWAP8 PUSH2 0x12E6 DUP10 PUSH2 0x23C2 JUMP JUMPDEST DUP9 MSTORE PUSH1 0x20 DUP9 ADD SWAP13 DUP14 MSTORE PUSH1 0x40 DUP9 ADD SWAP6 CALLER DUP8 MSTORE CALLDATASIZE SWAP1 PUSH2 0x1302 SWAP3 PUSH2 0x25EE JUMP JUMPDEST SWAP6 PUSH1 0x60 DUP9 ADD SWAP7 DUP8 MSTORE CALLDATASIZE SWAP1 PUSH2 0x1315 SWAP3 PUSH2 0x25EE JUMP JUMPDEST SWAP6 PUSH1 0x80 ADD SWAP6 DUP7 MSTORE CALLDATASIZE SWAP1 PUSH2 0x1327 SWAP3 PUSH2 0x25EE JUMP JUMPDEST SWAP5 PUSH1 0xA0 DUP14 ADD SWAP6 DUP7 MSTORE CALLDATASIZE SWAP1 PUSH2 0x133A SWAP3 PUSH2 0x25EE JUMP JUMPDEST SWAP5 PUSH1 0xC0 DUP13 ADD SWAP6 DUP7 MSTORE PUSH1 0xE0 DUP13 ADD SWAP7 DUP8 MSTORE PUSH2 0x100 DUP13 ADD SWAP8 DUP11 DUP10 MSTORE CALLDATASIZE SWAP1 PUSH2 0x135D SWAP3 PUSH2 0x25EE JUMP JUMPDEST SWAP8 PUSH2 0x120 DUP13 ADD SWAP9 DUP10 MSTORE PUSH2 0x140 DUP13 ADD SWAP10 PUSH1 0xC4 CALLDATALOAD DUP12 MSTORE PUSH2 0x160 DUP14 ADD SWAP12 PUSH1 0x1 DUP14 MSTORE DUP2 MSTORE PUSH1 0x5 PUSH1 0x20 MSTORE PUSH1 0x40 SWAP1 KECCAK256 SWAP12 MLOAD DUP13 SSTORE MLOAD PUSH1 0x1 DUP13 ADD SSTORE PUSH1 0x2 DUP12 ADD SWAP1 PUSH1 0x1 PUSH1 0xA0 SHL PUSH1 0x1 SWAP1 SUB SWAP1 MLOAD AND PUSH12 0xFFFFFFFFFFFFFFFFFFFFFFFF PUSH1 0xA0 SHL DUP3 SLOAD AND OR SWAP1 SSTORE PUSH1 0x3 DUP11 ADD SWAP1 MLOAD DUP1 MLOAD PUSH1 0x1 PUSH1 0x1 PUSH1 0x40 SHL SUB DUP2 GT PUSH2 0x1B30 JUMPI DUP16 PUSH2 0x13E2 DUP3 PUSH2 0x13DC DUP7 SLOAD PUSH2 0x238A JUMP JUMPDEST DUP7 PUSH2 0x2633 JUMP JUMPDEST PUSH1 0x20 SWAP1 PUSH1 0x1F DUP4 GT PUSH1 0x1 EQ PUSH2 0x1ACE JUMPI SWAP1 PUSH2 0x140F SWAP4 DUP4 PUSH2 0x18F5 JUMPI JUMPDEST POP POP DUP2 PUSH1 0x1 SHL SWAP2 PUSH0 NOT SWAP1 PUSH1 0x3 SHL SHR NOT AND OR SWAP1 JUMP JUMPDEST SWAP1 SSTORE JUMPDEST PUSH1 0x4 DUP10 ADD SWAP1 MLOAD DUP1 MLOAD PUSH1 0x1 PUSH1 0x1 PUSH1 0x40 SHL SUB DUP2 GT PUSH2 0x1ABA JUMPI DUP15 PUSH2 0x1437 DUP3 PUSH2 0x13DC DUP7 SLOAD PUSH2 0x238A JUMP JUMPDEST PUSH1 0x20 SWAP1 PUSH1 0x1F DUP4 GT PUSH1 0x1 EQ PUSH2 0x1A58 JUMPI SWAP1 PUSH2 0x1463 SWAP4 DUP4 PUSH2 0x18F5 JUMPI POP POP DUP2 PUSH1 0x1 SHL SWAP2 PUSH0 NOT SWAP1 PUSH1 0x3 SHL SHR NOT AND OR SWAP1 JUMP JUMPDEST SWAP1 SSTORE JUMPDEST PUSH1 0x5 DUP9 ADD SWAP1 MLOAD DUP1 MLOAD PUSH1 0x1 PUSH1 0x1 PUSH1 0x40 SHL SUB DUP2 GT PUSH2 0x1A44 JUMPI PUSH2 0x1490 DUP2 PUSH2 0x148A DUP6 SLOAD PUSH2 0x238A JUMP JUMPDEST DUP6 PUSH2 0x2633 JUMP JUMPDEST PUSH1 0x20 DUP15 PUSH1 0x1 PUSH1 0x1F DUP5 GT EQ PUSH2 0x19E2 JUMPI SWAP1 PUSH2 0x14BC SWAP4 DUP4 PUSH2 0x18F5 JUMPI POP POP DUP2 PUSH1 0x1 SHL SWAP2 PUSH0 NOT SWAP1 PUSH1 0x3 SHL SHR NOT AND OR SWAP1 JUMP JUMPDEST SWAP1 SSTORE JUMPDEST PUSH1 0x6 DUP8 ADD SWAP1 MLOAD DUP1 MLOAD PUSH1 0x1 PUSH1 0x1 PUSH1 0x40 SHL SUB DUP2 GT PUSH2 0x19CE JUMPI PUSH2 0x14E3 DUP2 PUSH2 0x148A DUP6 SLOAD PUSH2 0x238A JUMP JUMPDEST PUSH1 0x20 DUP14 PUSH1 0x1F DUP4 GT PUSH1 0x1 EQ PUSH2 0x196C JUMPI SWAP1 PUSH2 0x150F SWAP4 DUP4 PUSH2 0x18F5 JUMPI POP POP DUP2 PUSH1 0x1 SHL SWAP2 PUSH0 NOT SWAP1 PUSH1 0x3 SHL SHR NOT AND OR SWAP1 JUMP JUMPDEST SWAP1 SSTORE JUMPDEST MLOAD PUSH1 0x7 DUP7 ADD SSTORE MLOAD PUSH1 0x8 DUP6 ADD SSTORE MLOAD DUP1 MLOAD PUSH1 0x9 DUP6 ADD SWAP2 PUSH1 0x1 PUSH1 0x1 PUSH1 0x40 SHL SUB DUP3 GT PUSH2 0x1842 JUMPI PUSH2 0x1542 DUP3 PUSH2 0x148A DUP6 SLOAD PUSH2 0x238A JUMP JUMPDEST PUSH1 0x20 SWAP1 DUP11 PUSH1 0x1F DUP5 GT PUSH1 0x1 EQ PUSH2 0x1900 JUMPI SWAP3 DUP1 PUSH2 0x159A SWAP9 SWAP8 SWAP6 SWAP4 PUSH2 0x157B SWAP4 PUSH1 0xB SWAP9 SWAP7 SWAP3 PUSH2 0x18F5 JUMPI POP POP DUP2 PUSH1 0x1 SHL SWAP2 PUSH0 NOT SWAP1 PUSH1 0x3 SHL SHR NOT AND OR SWAP1 JUMP JUMPDEST SWAP1 SSTORE JUMPDEST MLOAD PUSH1 0xA DUP5 ADD SSTORE MLOAD ISZERO ISZERO SWAP2 ADD SWAP1 PUSH1 0xFF DUP1 NOT DUP4 SLOAD AND SWAP2 ISZERO ISZERO AND OR SWAP1 SSTORE JUMP JUMPDEST PUSH1 0x6 SLOAD PUSH1 0x1 PUSH1 0x40 SHL DUP2 LT ISZERO PUSH2 0x18E1 JUMPI DUP1 PUSH1 0x1 PUSH2 0x15B9 SWAP3 ADD PUSH1 0x6 SSTORE PUSH2 0x2330 JUMP JUMPDEST DUP2 SLOAD SWAP1 PUSH1 0x3 SHL SWAP1 DUP6 DUP3 SHL SWAP2 PUSH0 NOT SWAP1 SHL NOT AND OR SWAP1 SSTORE DUP4 JUMPDEST DUP3 DUP2 LT PUSH2 0x1696 JUMPI POP POP PUSH1 0x2 SLOAD DUP4 SWAP2 POP PUSH1 0x1 PUSH1 0x1 PUSH1 0xA0 SHL SUB AND DUP1 EXTCODESIZE ISZERO PUSH2 0x1687 JUMPI PUSH1 0x40 MLOAD PUSH4 0x993E5891 PUSH1 0xE0 SHL DUP2 MSTORE PUSH1 0x4 DUP2 ADD DUP5 SWAP1 MSTORE CALLER PUSH1 0x24 DUP3 ADD MSTORE SWAP1 DUP3 SWAP1 DUP3 SWAP1 PUSH1 0x44 SWAP1 DUP3 SWAP1 DUP5 SWAP1 GAS CALL DUP1 ISZERO PUSH2 0x168B JUMPI PUSH2 0x1672 JUMPI JUMPDEST POP POP CALLER SWAP1 PUSH32 0x56419E16617C73FD93C78FF2BDC4B1DC1DAE51571A63E868C6FDAB1E9B244F32 DUP4 DUP1 LOG3 CALLER DUP2 MSTORE PUSH1 0x8 PUSH1 0x20 MSTORE TIMESTAMP PUSH1 0x40 DUP3 KECCAK256 SSTORE CALLER DUP2 MSTORE PUSH1 0x9 PUSH1 0x20 MSTORE PUSH1 0x40 DUP2 KECCAK256 PUSH2 0x166D DUP2 SLOAD PUSH2 0x25E0 JUMP JUMPDEST SWAP1 SSTORE DUP1 RETURN JUMPDEST DUP2 PUSH2 0x167C SWAP2 PUSH2 0x23F2 JUMP JUMPDEST PUSH2 0x1687 JUMPI DUP2 PUSH0 PUSH2 0x1621 JUMP JUMPDEST POP DUP1 REVERT JUMPDEST PUSH1 0x40 MLOAD RETURNDATASIZE DUP5 DUP3 RETURNDATACOPY RETURNDATASIZE SWAP1 REVERT JUMPDEST DUP4 DUP6 MSTORE PUSH1 0x7 PUSH1 0x20 MSTORE PUSH1 0x40 DUP6 KECCAK256 SWAP1 PUSH2 0x16AE DUP2 DUP6 DUP6 PUSH2 0x256B JUMP JUMPDEST SWAP2 DUP1 SLOAD SWAP1 PUSH1 0x1 PUSH1 0x40 SHL DUP3 LT ISZERO PUSH2 0x18CD JUMPI SWAP1 PUSH2 0x16CE SWAP2 PUSH1 0x1 DUP3 ADD DUP2 SSTORE PUSH2 0x2371 JUMP JUMPDEST SWAP3 SWAP1 SWAP3 PUSH2 0x18B9 JUMPI PUSH2 0x16DF DUP2 DUP1 PUSH2 0x258D JUMP JUMPDEST SWAP1 PUSH1 0x1 PUSH1 0x1 PUSH1 0x40 SHL SUB DUP3 GT PUSH2 0x357 JUMPI PUSH2 0x1702 DUP3 PUSH2 0x16FC DUP8 SLOAD PUSH2 0x238A JUMP JUMPDEST DUP8 PUSH2 0x2633 JUMP JUMPDEST DUP9 SWAP1 PUSH1 0x1F DUP4 GT PUSH1 0x1 EQ PUSH2 0x1856 JUMPI PUSH2 0x172F SWAP3 SWAP2 DUP11 SWAP2 DUP4 PUSH2 0x17D0 JUMPI POP POP DUP2 PUSH1 0x1 SHL SWAP2 PUSH0 NOT SWAP1 PUSH1 0x3 SHL SHR NOT AND OR SWAP1 JUMP JUMPDEST DUP4 SSTORE JUMPDEST PUSH1 0x20 DUP2 ADD CALLDATALOAD PUSH1 0x1 DUP5 ADD SSTORE PUSH1 0x2 DUP4 ADD PUSH2 0x174D PUSH1 0x40 DUP4 ADD DUP4 PUSH2 0x258D JUMP JUMPDEST SWAP1 PUSH1 0x1 PUSH1 0x1 PUSH1 0x40 SHL SUB DUP3 GT PUSH2 0x1842 JUMPI PUSH2 0x176A DUP3 PUSH2 0x148A DUP6 SLOAD PUSH2 0x238A JUMP JUMPDEST DUP10 SWAP1 PUSH1 0x1F DUP4 GT PUSH1 0x1 EQ PUSH2 0x17DB JUMPI SWAP2 DUP1 PUSH2 0x179C SWAP3 PUSH1 0x60 SWAP7 SWAP6 SWAP5 DUP14 SWAP3 PUSH2 0x17D0 JUMPI POP POP DUP2 PUSH1 0x1 SHL SWAP2 PUSH0 NOT SWAP1 PUSH1 0x3 SHL SHR NOT AND OR SWAP1 JUMP JUMPDEST SWAP1 SSTORE JUMPDEST ADD CALLDATALOAD SWAP2 DUP3 ISZERO ISZERO DUP4 SUB PUSH2 0x17CC JUMPI PUSH1 0x1 SWAP3 PUSH1 0x3 PUSH2 0x17C6 SWAP3 ADD SWAP1 PUSH1 0xFF DUP1 NOT DUP4 SLOAD AND SWAP2 ISZERO ISZERO AND OR SWAP1 SSTORE JUMP JUMPDEST ADD PUSH2 0x15CF JUMP JUMPDEST DUP7 DUP1 REVERT JUMPDEST ADD CALLDATALOAD SWAP1 POP PUSH0 DUP1 PUSH2 0x13FB JUMP JUMPDEST DUP4 DUP12 MSTORE PUSH1 0x20 DUP12 KECCAK256 SWAP2 PUSH1 0x1F NOT DUP5 AND DUP13 JUMPDEST DUP2 DUP2 LT PUSH2 0x182A JUMPI POP SWAP2 PUSH1 0x1 SWAP4 SWAP2 DUP6 PUSH1 0x60 SWAP9 SWAP8 SWAP7 SWAP5 LT PUSH2 0x1811 JUMPI JUMPDEST POP POP POP DUP2 SHL ADD SWAP1 SSTORE PUSH2 0x179F JUMP JUMPDEST ADD CALLDATALOAD PUSH0 NOT PUSH1 0x3 DUP5 SWAP1 SHL PUSH1 0xF8 AND SHR NOT AND SWAP1 SSTORE PUSH0 DUP1 DUP1 PUSH2 0x1804 JUMP JUMPDEST SWAP2 SWAP4 PUSH1 0x20 PUSH1 0x1 DUP2 SWAP3 DUP8 DUP8 ADD CALLDATALOAD DUP2 SSTORE ADD SWAP6 ADD SWAP3 ADD PUSH2 0x17EA JUMP JUMPDEST PUSH4 0x4E487B71 PUSH1 0xE0 SHL DUP11 MSTORE PUSH1 0x41 PUSH1 0x4 MSTORE PUSH1 0x24 DUP11 REVERT JUMPDEST DUP6 DUP11 MSTORE PUSH1 0x20 DUP11 KECCAK256 SWAP2 PUSH1 0x1F NOT DUP5 AND DUP12 JUMPDEST DUP2 DUP2 LT PUSH2 0x18A1 JUMPI POP SWAP1 DUP5 PUSH1 0x1 SWAP6 SWAP5 SWAP4 SWAP3 LT PUSH2 0x1888 JUMPI JUMPDEST POP POP POP DUP2 SHL ADD DUP4 SSTORE PUSH2 0x1732 JUMP JUMPDEST ADD CALLDATALOAD PUSH0 NOT PUSH1 0x3 DUP5 SWAP1 SHL PUSH1 0xF8 AND SHR NOT AND SWAP1 SSTORE PUSH0 DUP1 DUP1 PUSH2 0x187B JUMP JUMPDEST SWAP2 SWAP4 PUSH1 0x20 PUSH1 0x1 DUP2 SWAP3 DUP8 DUP8 ADD CALLDATALOAD DUP2 SSTORE ADD SWAP6 ADD SWAP3 ADD PUSH2 0x1865 JUMP JUMPDEST PUSH4 0x4E487B71 PUSH1 0xE0 SHL DUP8 MSTORE PUSH1 0x4 DUP8 SWAP1 MSTORE PUSH1 0x24 DUP8 REVERT JUMPDEST PUSH4 0x4E487B71 PUSH1 0xE0 SHL DUP9 MSTORE PUSH1 0x41 PUSH1 0x4 MSTORE PUSH1 0x24 DUP9 REVERT JUMPDEST PUSH4 0x4E487B71 PUSH1 0xE0 SHL DUP6 MSTORE PUSH1 0x41 PUSH1 0x4 MSTORE PUSH1 0x24 DUP6 REVERT JUMPDEST ADD MLOAD SWAP1 POP PUSH0 DUP1 PUSH2 0x13FB JUMP JUMPDEST POP DUP4 DUP12 MSTORE DUP2 DUP12 KECCAK256 SWAP2 SWAP1 PUSH1 0x1F NOT DUP5 AND DUP13 JUMPDEST DUP2 DUP2 LT PUSH2 0x1954 JUMPI POP SWAP3 PUSH1 0x1 SWAP3 DUP6 SWAP3 PUSH1 0xB SWAP9 SWAP7 PUSH2 0x159A SWAP12 SWAP11 SWAP9 SWAP7 LT PUSH2 0x193C JUMPI JUMPDEST POP POP POP DUP2 SHL ADD SWAP1 SSTORE PUSH2 0x157E JUMP JUMPDEST ADD MLOAD PUSH0 NOT PUSH1 0xF8 DUP5 PUSH1 0x3 SHL AND SHR NOT AND SWAP1 SSTORE PUSH0 DUP1 DUP1 PUSH2 0x192F JUMP JUMPDEST SWAP3 SWAP4 PUSH1 0x20 PUSH1 0x1 DUP2 SWAP3 DUP8 DUP7 ADD MLOAD DUP2 SSTORE ADD SWAP6 ADD SWAP4 ADD PUSH2 0x1910 JUMP JUMPDEST SWAP2 SWAP3 PUSH1 0x1F NOT DUP5 AND DUP6 DUP5 MSTORE DUP3 DUP5 KECCAK256 SWAP4 JUMPDEST DUP2 DUP2 LT PUSH2 0x19B6 JUMPI POP SWAP1 DUP5 PUSH1 0x1 SWAP6 SWAP5 SWAP4 SWAP3 LT PUSH2 0x199E JUMPI JUMPDEST POP POP POP DUP2 SHL ADD SWAP1 SSTORE PUSH2 0x1512 JUMP JUMPDEST ADD MLOAD PUSH0 NOT PUSH1 0xF8 DUP5 PUSH1 0x3 SHL AND SHR NOT AND SWAP1 SSTORE PUSH0 DUP1 DUP1 PUSH2 0x1991 JUMP JUMPDEST SWAP3 SWAP4 PUSH1 0x20 PUSH1 0x1 DUP2 SWAP3 DUP8 DUP7 ADD MLOAD DUP2 SSTORE ADD SWAP6 ADD SWAP4 ADD PUSH2 0x197B JUMP JUMPDEST PUSH4 0x4E487B71 PUSH1 0xE0 SHL DUP14 MSTORE PUSH1 0x41 PUSH1 0x4 MSTORE PUSH1 0x24 DUP14 REVERT JUMPDEST SWAP2 SWAP3 PUSH1 0x1F NOT DUP5 AND DUP6 DUP5 MSTORE DUP3 DUP5 KECCAK256 SWAP4 JUMPDEST DUP2 DUP2 LT PUSH2 0x1A2C JUMPI POP SWAP1 DUP5 PUSH1 0x1 SWAP6 SWAP5 SWAP4 SWAP3 LT PUSH2 0x1A14 JUMPI JUMPDEST POP POP POP DUP2 SHL ADD SWAP1 SSTORE PUSH2 0x14BF JUMP JUMPDEST ADD MLOAD PUSH0 NOT PUSH1 0xF8 DUP5 PUSH1 0x3 SHL AND SHR NOT AND SWAP1 SSTORE PUSH0 DUP1 DUP1 PUSH2 0x1A07 JUMP JUMPDEST SWAP3 SWAP4 PUSH1 0x20 PUSH1 0x1 DUP2 SWAP3 DUP8 DUP7 ADD MLOAD DUP2 SSTORE ADD SWAP6 ADD SWAP4 ADD PUSH2 0x19F1 JUMP JUMPDEST PUSH4 0x4E487B71 PUSH1 0xE0 SHL DUP15 MSTORE PUSH1 0x41 PUSH1 0x4 MSTORE PUSH1 0x24 DUP15 REVERT JUMPDEST SWAP2 SWAP3 PUSH1 0x1F NOT DUP5 AND DUP6 DUP5 MSTORE DUP3 DUP5 KECCAK256 SWAP4 JUMPDEST DUP2 DUP2 LT PUSH2 0x1AA2 JUMPI POP SWAP1 DUP5 PUSH1 0x1 SWAP6 SWAP5 SWAP4 SWAP3 LT PUSH2 0x1A8A JUMPI JUMPDEST POP POP POP DUP2 SHL ADD SWAP1 SSTORE PUSH2 0x1466 JUMP JUMPDEST ADD MLOAD PUSH0 NOT PUSH1 0xF8 DUP5 PUSH1 0x3 SHL AND SHR NOT AND SWAP1 SSTORE PUSH0 DUP1 DUP1 PUSH2 0x1A7D JUMP JUMPDEST SWAP3 SWAP4 PUSH1 0x20 PUSH1 0x1 DUP2 SWAP3 DUP8 DUP7 ADD MLOAD DUP2 SSTORE ADD SWAP6 ADD SWAP4 ADD PUSH2 0x1A67 JUMP JUMPDEST PUSH4 0x4E487B71 PUSH1 0xE0 SHL DUP16 MSTORE PUSH1 0x41 PUSH1 0x4 MSTORE PUSH1 0x24 DUP16 REVERT JUMPDEST SWAP2 SWAP3 PUSH1 0x1F NOT DUP5 AND DUP6 DUP5 MSTORE DUP3 DUP5 KECCAK256 SWAP4 JUMPDEST DUP2 DUP2 LT PUSH2 0x1B18 JUMPI POP SWAP1 DUP5 PUSH1 0x1 SWAP6 SWAP5 SWAP4 SWAP3 LT PUSH2 0x1B00 JUMPI JUMPDEST POP POP POP DUP2 SHL ADD SWAP1 SSTORE PUSH2 0x1412 JUMP JUMPDEST ADD MLOAD PUSH0 NOT PUSH1 0xF8 DUP5 PUSH1 0x3 SHL AND SHR NOT AND SWAP1 SSTORE PUSH0 DUP1 DUP1 PUSH2 0x1AF3 JUMP JUMPDEST SWAP3 SWAP4 PUSH1 0x20 PUSH1 0x1 DUP2 SWAP3 DUP8 DUP7 ADD MLOAD DUP2 SSTORE ADD SWAP6 ADD SWAP4 ADD PUSH2 0x1ADD JUMP JUMPDEST POP PUSH4 0x4E487B71 PUSH1 0xE0 SHL DUP16 MSTORE PUSH1 0x41 PUSH1 0x4 MSTORE PUSH1 0x24 DUP16 REVERT JUMPDEST PUSH1 0x40 MLOAD PUSH3 0x461BCD PUSH1 0xE5 SHL DUP2 MSTORE PUSH1 0x20 PUSH1 0x4 DUP3 ADD MSTORE PUSH1 0x25 PUSH1 0x24 DUP3 ADD MSTORE PUSH32 0x4D696C6573746F6E652070657263656E7461676573206D7573742073756D2074 PUSH1 0x44 DUP3 ADD MSTORE PUSH5 0x6F2031303 PUSH1 0xDC SHL PUSH1 0x64 DUP3 ADD MSTORE PUSH1 0x84 SWAP1 REVERT JUMPDEST DUP4 PUSH2 0x1BAC SWAP3 PUSH2 0x1BA6 SWAP3 PUSH2 0x256B JUMP JUMPDEST DUP1 PUSH2 0x258D JUMP JUMPDEST SWAP1 POP ISZERO PUSH2 0x1BD8 JUMPI PUSH2 0x1BD0 PUSH1 0x1 SWAP2 DUP16 DUP16 DUP6 PUSH1 0x20 SWAP3 PUSH2 0x1BC8 SWAP3 PUSH2 0x256B JUMP JUMPDEST ADD CALLDATALOAD SWAP1 PUSH2 0x25BF JUMP JUMPDEST SWAP2 ADD SWAP1 PUSH2 0x127C JUMP JUMPDEST PUSH1 0x40 MLOAD PUSH3 0x461BCD PUSH1 0xE5 SHL DUP2 MSTORE PUSH1 0x20 PUSH1 0x4 DUP3 ADD MSTORE PUSH1 0x18 PUSH1 0x24 DUP3 ADD MSTORE PUSH32 0x4D696C6573746F6E65207469746C652072657175697265640000000000000000 PUSH1 0x44 DUP3 ADD MSTORE PUSH1 0x64 SWAP1 REVERT JUMPDEST PUSH1 0x40 MLOAD PUSH3 0x461BCD PUSH1 0xE5 SHL DUP2 MSTORE PUSH1 0x20 PUSH1 0x4 DUP3 ADD MSTORE PUSH1 0x18 PUSH1 0x24 DUP3 ADD MSTORE PUSH32 0x4D696C6573746F6E657320617265206D616E6461746F72790000000000000000 PUSH1 0x44 DUP3 ADD MSTORE PUSH1 0x64 SWAP1 REVERT JUMPDEST PUSH1 0x40 MLOAD PUSH3 0x461BCD PUSH1 0xE5 SHL DUP2 MSTORE PUSH1 0x20 PUSH1 0x4 DUP3 ADD MSTORE PUSH1 0x1A PUSH1 0x24 DUP3 ADD MSTORE PUSH32 0x456E642064617465206D75737420626520696E20667574757265000000000000 PUSH1 0x44 DUP3 ADD MSTORE PUSH1 0x64 SWAP1 REVERT JUMPDEST PUSH1 0x40 MLOAD PUSH3 0x461BCD PUSH1 0xE5 SHL DUP2 MSTORE PUSH1 0x20 PUSH1 0x4 DUP3 ADD MSTORE PUSH1 0x15 PUSH1 0x24 DUP3 ADD MSTORE PUSH21 0x11DBD85B08195E18D959591CC80C53481B1A5B5A5D PUSH1 0x5A SHL PUSH1 0x44 DUP3 ADD MSTORE PUSH1 0x64 SWAP1 REVERT JUMPDEST PUSH1 0x40 MLOAD PUSH3 0x461BCD PUSH1 0xE5 SHL DUP2 MSTORE PUSH1 0x20 PUSH1 0x4 DUP3 ADD MSTORE PUSH1 0x10 PUSH1 0x24 DUP3 ADD MSTORE PUSH16 0x476F616C206D757374206265203E203 PUSH1 0x84 SHL PUSH1 0x44 DUP3 ADD MSTORE PUSH1 0x64 SWAP1 REVERT JUMPDEST PUSH1 0x40 MLOAD PUSH3 0x461BCD PUSH1 0xE5 SHL DUP2 MSTORE PUSH1 0x20 PUSH1 0x4 DUP3 ADD MSTORE PUSH1 0x15 PUSH1 0x24 DUP3 ADD MSTORE PUSH21 0x43757272656E6379206973206D616E6461746F7279 PUSH1 0x58 SHL PUSH1 0x44 DUP3 ADD MSTORE PUSH1 0x64 SWAP1 REVERT JUMPDEST PUSH1 0x40 MLOAD PUSH3 0x461BCD PUSH1 0xE5 SHL DUP2 MSTORE PUSH1 0x20 PUSH1 0x4 DUP3 ADD MSTORE PUSH1 0x15 PUSH1 0x24 DUP3 ADD MSTORE PUSH21 0x43617465676F7279206973206D616E6461746F7279 PUSH1 0x58 SHL PUSH1 0x44 DUP3 ADD MSTORE PUSH1 0x64 SWAP1 REVERT JUMPDEST PUSH1 0x40 MLOAD PUSH3 0x461BCD PUSH1 0xE5 SHL DUP2 MSTORE PUSH1 0x20 PUSH1 0x4 DUP3 ADD MSTORE PUSH1 0x18 PUSH1 0x24 DUP3 ADD MSTORE PUSH32 0x4465736372697074696F6E206973206D616E6461746F72790000000000000000 PUSH1 0x44 DUP3 ADD MSTORE PUSH1 0x64 SWAP1 REVERT JUMPDEST PUSH1 0x40 MLOAD PUSH3 0x461BCD PUSH1 0xE5 SHL DUP2 MSTORE PUSH1 0x20 PUSH1 0x4 DUP3 ADD MSTORE PUSH1 0x12 PUSH1 0x24 DUP3 ADD MSTORE PUSH18 0x5469746C65206973206D616E6461746F7279 PUSH1 0x70 SHL PUSH1 0x44 DUP3 ADD MSTORE PUSH1 0x64 SWAP1 REVERT JUMPDEST PUSH1 0x40 MLOAD PUSH3 0x461BCD PUSH1 0xE5 SHL DUP2 MSTORE PUSH1 0x20 PUSH1 0x4 DUP3 ADD MSTORE PUSH1 0x21 PUSH1 0x24 DUP3 ADD MSTORE PUSH32 0x4C696D69743A2035206163746976652063616D706169676E7320726561636865 PUSH1 0x44 DUP3 ADD MSTORE PUSH1 0x19 PUSH1 0xFA SHL PUSH1 0x64 DUP3 ADD MSTORE PUSH1 0x84 SWAP1 REVERT JUMPDEST PUSH1 0x20 PUSH1 0x24 SWAP2 PUSH1 0x40 MLOAD SWAP3 DUP4 DUP1 SWAP3 PUSH4 0xB9209E33 PUSH1 0xE0 SHL DUP3 MSTORE CALLER PUSH1 0x4 DUP4 ADD MSTORE GAS STATICCALL SWAP2 DUP3 ISZERO PUSH2 0x1F0F JUMPI SWAP2 PUSH2 0x1EF0 JUMPI JUMPDEST POP ISZERO PUSH2 0x1E9C JUMPI DUP14 PUSH0 PUSH2 0x1224 JUMP JUMPDEST PUSH1 0x40 MLOAD PUSH3 0x461BCD PUSH1 0xE5 SHL DUP2 MSTORE PUSH1 0x20 PUSH1 0x4 DUP3 ADD MSTORE PUSH1 0x26 PUSH1 0x24 DUP3 ADD MSTORE PUSH32 0x43726561746F72206D75737420636F6D706C657465204B594320766572696669 PUSH1 0x44 DUP3 ADD MSTORE PUSH6 0x31B0BA34B7B7 PUSH1 0xD1 SHL PUSH1 0x64 DUP3 ADD MSTORE PUSH1 0x84 SWAP1 REVERT JUMPDEST PUSH2 0x1F09 SWAP2 POP PUSH1 0x20 RETURNDATASIZE PUSH1 0x20 GT PUSH2 0xCAA JUMPI PUSH2 0xC9C DUP2 DUP4 PUSH2 0x23F2 JUMP JUMPDEST PUSH0 PUSH2 0x1E8F JUMP JUMPDEST PUSH1 0x40 MLOAD SWAP1 RETURNDATASIZE SWAP1 DUP3 RETURNDATACOPY RETURNDATASIZE SWAP1 REVERT JUMPDEST DUP14 DUP1 REVERT JUMPDEST DUP13 DUP1 REVERT JUMPDEST DUP11 DUP1 REVERT JUMPDEST DUP8 DUP1 REVERT JUMPDEST DUP6 DUP1 REVERT JUMPDEST DUP4 DUP1 REVERT JUMPDEST POP CALLVALUE PUSH2 0x1D9 JUMPI PUSH2 0x1F42 CALLDATASIZE PUSH2 0x22C3 JUMP JUMPDEST SWAP1 DUP3 DUP5 MSTORE PUSH1 0x5 PUSH1 0x20 MSTORE PUSH2 0x1F65 PUSH1 0x1 DUP1 PUSH1 0xA0 SHL SUB PUSH1 0x2 PUSH1 0x40 DUP8 KECCAK256 ADD SLOAD AND CALLER EQ PUSH2 0x2510 JUMP JUMPDEST PUSH2 0x1F6D PUSH2 0x26FC JUMP JUMPDEST DUP3 DUP5 MSTORE PUSH1 0x7 PUSH1 0x20 MSTORE PUSH2 0x1F82 DUP3 PUSH1 0x40 DUP7 KECCAK256 PUSH2 0x2371 JUMP JUMPDEST POP SWAP2 PUSH1 0x3 DUP4 ADD SWAP3 PUSH1 0xFF DUP5 SLOAD AND PUSH2 0x20F6 JUMPI DUP5 DUP7 MSTORE PUSH1 0x5 PUSH1 0x20 MSTORE PUSH1 0x1 PUSH1 0x7 PUSH1 0x40 DUP9 KECCAK256 ADD SLOAD SWAP2 ADD SLOAD SWAP1 DUP2 DUP2 MUL SWAP2 DUP2 DUP4 DIV EQ SWAP1 ISZERO OR ISZERO PUSH2 0x20E2 JUMPI PUSH1 0x2 SLOAD PUSH1 0x40 MLOAD PUSH4 0x8A6F659B PUSH1 0xE0 SHL DUP2 MSTORE PUSH1 0x1 PUSH1 0x1 PUSH1 0xA0 SHL SUB DUP6 DUP2 AND PUSH1 0x4 DUP4 ADD MSTORE PUSH1 0x24 DUP3 ADD DUP9 SWAP1 MSTORE PUSH1 0x64 SWAP4 DUP5 SWAP1 DIV PUSH1 0x44 DUP4 ADD DUP2 SWAP1 MSTORE SWAP6 SWAP4 SWAP2 SWAP3 PUSH1 0x20 SWAP3 DUP5 SWAP3 SWAP1 SWAP2 DUP4 SWAP2 DUP13 SWAP2 AND GAS CALL SWAP1 DUP2 ISZERO PUSH2 0xD20 JUMPI DUP8 SWAP2 PUSH2 0x20C3 JUMPI JUMPDEST POP ISZERO PUSH2 0x208D JUMPI DUP4 SLOAD PUSH1 0xFF NOT AND PUSH1 0x1 OR SWAP1 SWAP4 SSTORE PUSH1 0x40 DUP1 MLOAD PUSH1 0x1 PUSH1 0x1 PUSH1 0xA0 SHL SUB SWAP1 SWAP5 AND DUP5 MSTORE PUSH1 0x20 DUP1 DUP6 ADD SWAP4 SWAP1 SWAP4 MSTORE PUSH32 0xE158232688E2AB3F6175F941292ADF66D1F345F74E71BFCF3B974507F4E33FC7 SWAP4 DUP6 SWAP2 PUSH32 0x75D86E5BFA1175E2DC677F3ABE3AEBBA3069F2DB6AE492F1734D4B4BC65F61C1 SWAP2 LOG2 PUSH1 0x40 MLOAD SWAP1 DUP2 MSTORE LOG2 PUSH1 0x1 DUP2 SSTORE DUP1 RETURN JUMPDEST PUSH1 0x40 MLOAD PUSH3 0x461BCD PUSH1 0xE5 SHL DUP2 MSTORE PUSH1 0x20 PUSH1 0x4 DUP3 ADD MSTORE PUSH1 0xE PUSH1 0x24 DUP3 ADD MSTORE PUSH14 0x14995B19585CD94819985A5B1959 PUSH1 0x92 SHL PUSH1 0x44 DUP3 ADD MSTORE PUSH1 0x64 SWAP1 REVERT JUMPDEST PUSH2 0x20DC SWAP2 POP PUSH1 0x20 RETURNDATASIZE PUSH1 0x20 GT PUSH2 0xCAA JUMPI PUSH2 0xC9C DUP2 DUP4 PUSH2 0x23F2 JUMP JUMPDEST PUSH0 PUSH2 0x200C JUMP JUMPDEST PUSH4 0x4E487B71 PUSH1 0xE0 SHL DUP7 MSTORE PUSH1 0x11 PUSH1 0x4 MSTORE PUSH1 0x24 DUP7 REVERT JUMPDEST PUSH1 0x40 MLOAD PUSH3 0x461BCD PUSH1 0xE5 SHL DUP2 MSTORE PUSH1 0x20 PUSH1 0x4 DUP3 ADD MSTORE PUSH1 0x1A PUSH1 0x24 DUP3 ADD MSTORE PUSH32 0x4D696C6573746F6E6520616C72656164792072656C6561736564000000000000 PUSH1 0x44 DUP3 ADD MSTORE PUSH1 0x64 SWAP1 REVERT JUMPDEST POP CALLVALUE PUSH2 0x221A JUMPI PUSH1 0x40 CALLDATASIZE PUSH1 0x3 NOT ADD SLT PUSH2 0x221A JUMPI PUSH2 0x2155 PUSH2 0x22AD JUMP JUMPDEST PUSH1 0x24 CALLDATALOAD SWAP1 DUP2 ISZERO ISZERO DUP1 SWAP3 SUB PUSH2 0x221A JUMPI PUSH2 0x2178 PUSH1 0x1 DUP1 PUSH1 0xA0 SHL SUB PUSH1 0x1 SLOAD AND CALLER EQ PUSH2 0x24D7 JUMP JUMPDEST PUSH1 0x1 PUSH1 0x1 PUSH1 0xA0 SHL SUB AND SWAP1 DUP2 ISZERO PUSH2 0x221E JUMPI PUSH1 0x2 SLOAD PUSH1 0x1 PUSH1 0x1 PUSH1 0xA0 SHL SUB AND DUP1 EXTCODESIZE ISZERO PUSH2 0x221A JUMPI PUSH0 DUP1 SWAP2 PUSH1 0x44 PUSH1 0x40 MLOAD DUP1 SWAP5 DUP2 SWAP4 PUSH4 0xFFB1D8B PUSH1 0xE0 SHL DUP4 MSTORE DUP9 PUSH1 0x4 DUP5 ADD MSTORE DUP8 PUSH1 0x24 DUP5 ADD MSTORE GAS CALL DUP1 ISZERO PUSH2 0x220F JUMPI PUSH2 0x21F9 JUMPI JUMPDEST POP PUSH1 0x20 PUSH32 0xEF81A9943B96C8DF4EF243401C9BF5159146166211356898B52D382086168D92 SWAP2 PUSH1 0x40 MLOAD SWAP1 DUP2 MSTORE LOG2 DUP1 RETURN JUMPDEST PUSH2 0x2206 SWAP2 SWAP4 POP PUSH0 SWAP1 PUSH2 0x23F2 JUMP JUMPDEST PUSH0 SWAP2 PUSH1 0x20 PUSH2 0x21CA JUMP JUMPDEST PUSH1 0x40 MLOAD RETURNDATASIZE PUSH0 DUP3 RETURNDATACOPY RETURNDATASIZE SWAP1 REVERT JUMPDEST PUSH0 DUP1 REVERT JUMPDEST PUSH1 0x40 MLOAD PUSH3 0x461BCD PUSH1 0xE5 SHL DUP2 MSTORE PUSH1 0x20 PUSH1 0x4 DUP3 ADD MSTORE PUSH1 0xD PUSH1 0x24 DUP3 ADD MSTORE PUSH13 0x24B73B30B634B2103A37B5B2B7 PUSH1 0x99 SHL PUSH1 0x44 DUP3 ADD MSTORE PUSH1 0x64 SWAP1 REVERT JUMPDEST CALLVALUE PUSH2 0x221A JUMPI PUSH1 0x40 CALLDATASIZE PUSH1 0x3 NOT ADD SLT PUSH2 0x221A JUMPI PUSH2 0x226C PUSH2 0x2297 JUMP JUMPDEST PUSH1 0x4 CALLDATALOAD PUSH0 MSTORE PUSH1 0xB PUSH1 0x20 MSTORE PUSH1 0x40 PUSH0 KECCAK256 SWAP1 PUSH1 0x1 DUP1 PUSH1 0xA0 SHL SUB AND PUSH0 MSTORE PUSH1 0x20 MSTORE PUSH1 0x20 PUSH1 0x40 PUSH0 KECCAK256 SLOAD PUSH1 0x40 MLOAD SWAP1 DUP2 MSTORE RETURN JUMPDEST PUSH1 0x24 CALLDATALOAD SWAP1 PUSH1 0x1 PUSH1 0x1 PUSH1 0xA0 SHL SUB DUP3 AND DUP3 SUB PUSH2 0x221A JUMPI JUMP JUMPDEST PUSH1 0x4 CALLDATALOAD SWAP1 PUSH1 0x1 PUSH1 0x1 PUSH1 0xA0 SHL SUB DUP3 AND DUP3 SUB PUSH2 0x221A JUMPI JUMP JUMPDEST PUSH1 0x60 SWAP1 PUSH1 0x3 NOT ADD SLT PUSH2 0x221A JUMPI PUSH1 0x4 CALLDATALOAD SWAP1 PUSH1 0x24 CALLDATALOAD PUSH1 0x1 PUSH1 0x1 PUSH1 0xA0 SHL SUB DUP2 AND DUP2 SUB PUSH2 0x221A JUMPI SWAP1 PUSH1 0x44 CALLDATALOAD SWAP1 JUMP JUMPDEST SWAP2 DUP2 PUSH1 0x1F DUP5 ADD SLT ISZERO PUSH2 0x221A JUMPI DUP3 CALLDATALOAD SWAP2 PUSH1 0x1 PUSH1 0x1 PUSH1 0x40 SHL SUB DUP4 GT PUSH2 0x221A JUMPI PUSH1 0x20 DUP4 DUP2 DUP7 ADD SWAP6 ADD ADD GT PUSH2 0x221A JUMPI JUMP JUMPDEST PUSH1 0x40 SWAP1 PUSH1 0x3 NOT ADD SLT PUSH2 0x221A JUMPI PUSH1 0x4 CALLDATALOAD SWAP1 PUSH1 0x24 CALLDATALOAD SWAP1 JUMP JUMPDEST PUSH1 0x6 SLOAD DUP2 LT ISZERO PUSH2 0x2348 JUMPI PUSH1 0x6 PUSH0 MSTORE PUSH1 0x20 PUSH0 KECCAK256 ADD SWAP1 PUSH0 SWAP1 JUMP JUMPDEST PUSH4 0x4E487B71 PUSH1 0xE0 SHL PUSH0 MSTORE PUSH1 0x32 PUSH1 0x4 MSTORE PUSH1 0x24 PUSH0 REVERT JUMPDEST DUP1 SLOAD DUP3 LT ISZERO PUSH2 0x2348 JUMPI PUSH0 MSTORE PUSH1 0x20 PUSH0 KECCAK256 ADD SWAP1 PUSH0 SWAP1 JUMP JUMPDEST DUP1 SLOAD DUP3 LT ISZERO PUSH2 0x2348 JUMPI PUSH0 MSTORE PUSH1 0x20 PUSH0 KECCAK256 SWAP1 PUSH1 0x2 SHL ADD SWAP1 PUSH0 SWAP1 JUMP JUMPDEST SWAP1 PUSH1 0x1 DUP3 DUP2 SHR SWAP3 AND DUP1 ISZERO PUSH2 0x23B8 JUMPI JUMPDEST PUSH1 0x20 DUP4 LT EQ PUSH2 0x23A4 JUMPI JUMP JUMPDEST PUSH4 0x4E487B71 PUSH1 0xE0 SHL PUSH0 MSTORE PUSH1 0x22 PUSH1 0x4 MSTORE PUSH1 0x24 PUSH0 REVERT JUMPDEST SWAP2 PUSH1 0x7F AND SWAP2 PUSH2 0x2399 JUMP JUMPDEST PUSH2 0x180 DUP2 ADD SWAP1 DUP2 LT PUSH1 0x1 PUSH1 0x1 PUSH1 0x40 SHL SUB DUP3 GT OR PUSH2 0x23DE JUMPI PUSH1 0x40 MSTORE JUMP JUMPDEST PUSH4 0x4E487B71 PUSH1 0xE0 SHL PUSH0 MSTORE PUSH1 0x41 PUSH1 0x4 MSTORE PUSH1 0x24 PUSH0 REVERT JUMPDEST SWAP1 PUSH1 0x1F DUP1 NOT SWAP2 ADD AND DUP2 ADD SWAP1 DUP2 LT PUSH1 0x1 PUSH1 0x1 PUSH1 0x40 SHL SUB DUP3 GT OR PUSH2 0x23DE JUMPI PUSH1 0x40 MSTORE JUMP JUMPDEST SWAP1 PUSH1 0x40 MLOAD SWAP2 DUP3 PUSH0 DUP3 SLOAD SWAP3 PUSH2 0x2426 DUP5 PUSH2 0x238A JUMP JUMPDEST DUP1 DUP5 MSTORE SWAP4 PUSH1 0x1 DUP2 AND SWAP1 DUP2 ISZERO PUSH2 0x2491 JUMPI POP PUSH1 0x1 EQ PUSH2 0x244D JUMPI JUMPDEST POP PUSH2 0x244B SWAP3 POP SUB DUP4 PUSH2 0x23F2 JUMP JUMPDEST JUMP JUMPDEST SWAP1 POP PUSH0 SWAP3 SWAP2 SWAP3 MSTORE PUSH1 0x20 PUSH0 KECCAK256 SWAP1 PUSH0 SWAP2 JUMPDEST DUP2 DUP4 LT PUSH2 0x2475 JUMPI POP POP SWAP1 PUSH1 0x20 PUSH2 0x244B SWAP3 DUP3 ADD ADD PUSH0 PUSH2 0x243E JUMP JUMPDEST PUSH1 0x20 SWAP2 SWAP4 POP DUP1 PUSH1 0x1 SWAP2 SLOAD DUP4 DUP6 DUP10 ADD ADD MSTORE ADD SWAP2 ADD SWAP1 SWAP2 DUP5 SWAP3 PUSH2 0x245C JUMP JUMPDEST SWAP1 POP PUSH1 0x20 SWAP3 POP PUSH2 0x244B SWAP5 SWAP2 POP PUSH1 0xFF NOT AND DUP3 DUP5 ADD MSTORE ISZERO ISZERO PUSH1 0x5 SHL DUP3 ADD ADD PUSH0 PUSH2 0x243E JUMP JUMPDEST DUP1 MLOAD DUP1 DUP4 MSTORE PUSH1 0x20 SWAP3 SWAP2 DUP2 SWAP1 DUP5 ADD DUP5 DUP5 ADD MCOPY PUSH0 DUP3 DUP3 ADD DUP5 ADD MSTORE PUSH1 0x1F ADD PUSH1 0x1F NOT AND ADD ADD SWAP1 JUMP JUMPDEST ISZERO PUSH2 0x24DE JUMPI JUMP JUMPDEST PUSH1 0x40 MLOAD PUSH3 0x461BCD PUSH1 0xE5 SHL DUP2 MSTORE PUSH1 0x20 PUSH1 0x4 DUP3 ADD MSTORE PUSH1 0xA PUSH1 0x24 DUP3 ADD MSTORE PUSH10 0x27B7363C9037BBB732B9 PUSH1 0xB1 SHL PUSH1 0x44 DUP3 ADD MSTORE PUSH1 0x64 SWAP1 REVERT JUMPDEST ISZERO PUSH2 0x2517 JUMPI JUMP JUMPDEST PUSH1 0x40 MLOAD PUSH3 0x461BCD PUSH1 0xE5 SHL DUP2 MSTORE PUSH1 0x20 PUSH1 0x4 DUP3 ADD MSTORE PUSH1 0x14 PUSH1 0x24 DUP3 ADD MSTORE PUSH20 0x2737BA1031B0B6B830B4B3B71031B932B0BA37B9 PUSH1 0x61 SHL PUSH1 0x44 DUP3 ADD MSTORE PUSH1 0x64 SWAP1 REVERT JUMPDEST SWAP1 DUP2 PUSH1 0x20 SWAP2 SUB SLT PUSH2 0x221A JUMPI MLOAD DUP1 ISZERO ISZERO DUP2 SUB PUSH2 0x221A JUMPI SWAP1 JUMP JUMPDEST SWAP2 SWAP1 DUP2 LT ISZERO PUSH2 0x2348 JUMPI PUSH1 0x5 SHL DUP2 ADD CALLDATALOAD SWAP1 PUSH1 0x7E NOT DUP2 CALLDATASIZE SUB ADD DUP3 SLT ISZERO PUSH2 0x221A JUMPI ADD SWAP1 JUMP JUMPDEST SWAP1 CALLDATALOAD SWAP1 PUSH1 0x1E NOT DUP2 CALLDATASIZE SUB ADD DUP3 SLT ISZERO PUSH2 0x221A JUMPI ADD DUP1 CALLDATALOAD SWAP1 PUSH1 0x1 PUSH1 0x1 PUSH1 0x40 SHL SUB DUP3 GT PUSH2 0x221A JUMPI PUSH1 0x20 ADD SWAP2 DUP2 CALLDATASIZE SUB DUP4 SGT PUSH2 0x221A JUMPI JUMP JUMPDEST SWAP2 SWAP1 DUP3 ADD DUP1 SWAP3 GT PUSH2 0x25CC JUMPI JUMP JUMPDEST PUSH4 0x4E487B71 PUSH1 0xE0 SHL PUSH0 MSTORE PUSH1 0x11 PUSH1 0x4 MSTORE PUSH1 0x24 PUSH0 REVERT JUMPDEST PUSH0 NOT DUP2 EQ PUSH2 0x25CC JUMPI PUSH1 0x1 ADD SWAP1 JUMP JUMPDEST SWAP3 SWAP2 SWAP3 PUSH1 0x1 PUSH1 0x1 PUSH1 0x40 SHL SUB DUP3 GT PUSH2 0x23DE JUMPI PUSH1 0x40 MLOAD SWAP2 PUSH2 0x2617 PUSH1 0x1F DUP3 ADD PUSH1 0x1F NOT AND PUSH1 0x20 ADD DUP5 PUSH2 0x23F2 JUMP JUMPDEST DUP3 SWAP5 DUP2 DUP5 MSTORE DUP2 DUP4 ADD GT PUSH2 0x221A JUMPI DUP3 DUP2 PUSH1 0x20 SWAP4 DUP5 PUSH0 SWAP7 ADD CALLDATACOPY ADD ADD MSTORE JUMP JUMPDEST SWAP2 SWAP1 SWAP2 PUSH1 0x1F DUP4 GT PUSH2 0x2644 JUMPI JUMPDEST POP POP POP JUMP JUMPDEST DUP2 DUP4 GT PUSH2 0x2650 JUMPI POP POP POP JUMP JUMPDEST PUSH0 MSTORE PUSH1 0x20 PUSH0 KECCAK256 PUSH1 0x20 PUSH1 0x1F DUP4 ADD PUSH1 0x5 SHR SWAP3 LT PUSH2 0x2689 JUMPI JUMPDEST DUP2 PUSH1 0x1F SWAP2 ADD SWAP3 ADD PUSH1 0x5 SHR SUB SWAP1 PUSH0 JUMPDEST DUP3 DUP2 LT ISZERO PUSH2 0x263F JUMPI PUSH0 DUP3 DUP3 ADD SSTORE PUSH1 0x1 ADD PUSH2 0x2674 JUMP JUMPDEST PUSH0 SWAP2 POP PUSH2 0x2666 JUMP JUMPDEST ISZERO PUSH2 0x2698 JUMPI JUMP JUMPDEST PUSH1 0x40 MLOAD PUSH3 0x461BCD PUSH1 0xE5 SHL DUP2 MSTORE PUSH1 0x20 PUSH1 0x4 DUP3 ADD MSTORE PUSH1 0x11 PUSH1 0x24 DUP3 ADD MSTORE PUSH17 0x24B730B1BA34BB329031B0B6B830B4B3B7 PUSH1 0x79 SHL PUSH1 0x44 DUP3 ADD MSTORE PUSH1 0x64 SWAP1 REVERT JUMPDEST PUSH1 0x1 PUSH1 0x1 PUSH1 0x40 SHL SUB DUP2 GT PUSH2 0x23DE JUMPI PUSH1 0x5 SHL PUSH1 0x20 ADD SWAP1 JUMP JUMPDEST DUP1 MLOAD DUP3 LT ISZERO PUSH2 0x2348 JUMPI PUSH1 0x20 SWAP2 PUSH1 0x5 SHL ADD ADD SWAP1 JUMP JUMPDEST PUSH1 0x2 PUSH0 SLOAD EQ PUSH2 0x270B JUMPI PUSH1 0x2 PUSH0 SSTORE JUMP JUMPDEST PUSH4 0x3EE5AEB5 PUSH1 0xE0 SHL PUSH0 MSTORE PUSH1 0x4 PUSH0 REVERT INVALID LOG2 PUSH5 0x6970667358 0x22 SLT KECCAK256 PUSH8 0xA5EED2C443D32894 NOT 0xB9 DUP9 0xE8 COINBASE PUSH23 0xE6AE530FA86A93748EF58E7FCBBFBA5E3364736F6C6343 STOP ADDMOD 0x21 STOP CALLER "
    }
  }
}