{
  "abi": [
    {
      "inputs": [],
      "stateMutability": "nonpayable",
      "type": "constructor"
    },
    {
      "anonymous": false,
      "inputs": [
        {
          "indexed": true,
          "internalType": "address",
          "name": "previousOwner",
          "type": "address"
        },
        {
          "indexed": true,
          "internalType": "address",
          "name": "newOwner",
          "type": "address"
        }
      ],
      "name": "OwnershipTransferred",
      "type": "event"
    },
    {
      "anonymous": false,
      "inputs": [
        {
          "indexed": true,
          "internalType": "address",
          "name": "user",
          "type": "address"
        },
        {
          "indexed": false,
          "internalType": "string",
          "name": "kycHash",
          "type": "string"
        }
      ],
      "name": "UserVerified",
      "type": "event"
    },
    {
      "inputs": [
        {
          "internalType": "address",
          "name": "user",
          "type": "address"
        }
      ],
      "name": "isUserVerified",
      "outputs": [
        {
          "internalType": "bool",
          "name": "",
          "type": "bool"
        }
      ],
      "stateMutability": "view",
      "type": "function"
    },
    {
      "inputs": [
        {
          "internalType": "address",
          "name": "",
          "type": "address"
        }
      ],
      "name": "isVerified",
      "outputs": [
        {
          "internalType": "bool",
          "name": "",
          "type": "bool"
        }
      ],
      "stateMutability": "view",
      "type": "function"
    },
    {
      "inputs": [
        {
          "internalType": "address",
          "name": "",
          "type": "address"
        }
      ],
      "name": "kycHash",
      "outputs": [
        {
          "internalType": "string",
          "name": "",
          "type": "string"
        }
      ],
      "stateMutability": "view",
      "type": "function"
    },
    {
      "inputs": [],
      "name": "owner",
      "outputs": [
        {
          "internalType": "address",
          "name": "",
          "type": "address"
        }
      ],
      "stateMutability": "view",
      "type": "function"
    },
    {
      "inputs": [
        {
          "internalType": "address",
          "name": "newOwner",
          "type": "address"
        }
      ],
      "name": "transferOwnership",
      "outputs": [],
      "stateMutability": "nonpayable",
      "type": "function"
    },
    {
      "inputs": [
        {
          "internalType": "string",
          "name": "_kycHash",
          "type": "string"
        }
      ],
      "name": "verifySelf",
      "outputs": [],
      "stateMutability": "nonpayable",
      "type": "function"
    },
    {
      "inputs": [
        {
          "internalType": "address",
          "name": "user",
          "type": "address"
        },
        {
          "internalType": "string",
          "name": "_kycHash",
          "type": "string"
        }
      ],
      "name": "verifyUser",
      "outputs": [],
      "stateMutability": "nonpayable",
      "type": "function"
    }
  ],
  "evm": {
    "bytecode": {
      "linkReferences": {},
      "object": "608080604052346026575f80546001600160a01b031916331790556107b4908161002b8239f35b5f80fdfe60806040526004361015610011575f80fd5b5f3560e01c8063641d7a781461041b5780638da5cb5b146103f4578063ace417e0146103b7578063b9209e33146103b7578063c38a0fb414610203578063d7ed6f14146101255763f2fde38b14610066575f80fd5b346101215760203660031901126101215761007f610607565b5f546001600160a01b038116916100973384146106f7565b6001600160a01b03169182156100dc5782907f8be0079c531659141344cd1fd0a4f28419497f9722a3daafe3b4186f6b6457e05f80a36001600160a01b031916175f55005b60405162461bcd60e51b815260206004820152601d60248201527f4e6577206f776e657220697320746865207a65726f20616464726573730000006044820152606490fd5b5f80fd5b34610121576020366003190112610121576001600160a01b03610146610607565b165f52600260205260405f20604051905f9080549061016482610695565b80855291600181169081156101dc575060011461019c575b6101988461018c8186038261061d565b604051918291826106cd565b0390f35b5f90815260208120939250905b8082106101c25750909150810160200161018c8261017c565b9192600181602092548385880101520191019092916101a9565b60ff191660208087019190915292151560051b8501909201925061018c915083905061017c565b346101215760203660031901126101215760043567ffffffffffffffff81116101215761023490369060040161063f565b610241600a825111610743565b335f52600160205260405f20600160ff19825416179055335f52600260205260405f20815167ffffffffffffffff81116103a35761027f8254610695565b601f8111610352575b50806020601f82116001146102f1575f916102e6575b508160011b915f199060031b1c19161790555b7fb9a56ef3335a4b13b2aa51519b56125ab2316b50d587ad80edfce74fe9a4b7d3604051806102e13394826106cd565b0390a2005b90508301518461029e565b5f8481528181209250601f198416905b81811061033a57509083600194939210610322575b5050811b0190556102b1565b8501515f1960f88460031b161c191690558480610316565b9192602060018192868a015181550194019201610301565b8181111561028857825f5260205f20601f830160051c906020841061039b575b81601f9101920160051c03905f5b82811061038e575050610288565b5f82820155600101610380565b5f9150610372565b634e487b7160e01b5f52604160045260245ffd5b34610121576020366003190112610121576001600160a01b036103d8610607565b165f526001602052602060ff60405f2054166040519015158152f35b34610121575f366003190112610121575f546040516001600160a01b039091168152602090f35b3461012157604036600319011261012157610434610607565b60243567ffffffffffffffff81116101215761045490369060040161063f565b9061046960018060a01b035f541633146106f7565b610476600a835111610743565b6001600160a01b03165f818152600160208181526040808420805460ff19169093179092556002905290208251929067ffffffffffffffff84116103a3576104be8154610695565b601f81116105b6575b50602093601f81116001146105305790816102e193927fb9a56ef3335a4b13b2aa51519b56125ab2316b50d587ad80edfce74fe9a4b7d395965f91610525575b508160011b915f199060031b1c1916179055604051918291826106cd565b905083015187610507565b601f198116825f52855f20905f5b81811061059e5750916001917fb9a56ef3335a4b13b2aa51519b56125ab2316b50d587ad80edfce74fe9a4b7d39697826102e197969510610586575b5050811b01905561018c565b8501515f1960f88460031b161c19169055878061057a565b8588015183556020978801976001909301920161053e565b848111156104c757815f5260205f20601f860160051c90602087106105ff575b81601f9101920160051c03905f5b8281106105f25750506104c7565b5f828201556001016105e4565b5f91506105d6565b600435906001600160a01b038216820361012157565b90601f8019910116810190811067ffffffffffffffff8211176103a357604052565b81601f820112156101215780359067ffffffffffffffff82116103a35760405192610674601f8401601f19166020018561061d565b8284526020838301011161012157815f926020809301838601378301015290565b90600182811c921680156106c3575b60208310146106af57565b634e487b7160e01b5f52602260045260245ffd5b91607f16916106a4565b602060409281835280519182918282860152018484015e5f828201840152601f01601f1916010190565b156106fe57565b60405162461bcd60e51b815260206004820152601860248201527f4f6e6c79206f776e65722063616e2063616c6c207468697300000000000000006044820152606490fd5b1561074a57565b60405162461bcd60e51b815260206004820152600c60248201526b092dcecc2d8d2c840d0c2e6d60a31b6044820152606490fdfea2646970667358221220b58246374232d04e2f2ca5d182f5471d850701b9c142e6268043e6f55c50352b64736f6c63430008210033",
      "opcodes": "PUSH1 0x80 DUP1 PUSH1 0x40 MSTORE CALLVALUE PUSH1 0x26 JUMPI PUSH0 DUP1 SLOAD PUSH1 0x1 PUSH1 0x1 PUSH1 0xA0 SHL SUB NOT AND CALLER OR SWAP1 SSTORE PUSH2 0x7B4 SWAP1 DUP2 PUSH2 0x2B DUP3 CODECOPY RETURN JUMPDEST PUSH0 DUP1 REVERT INVALID PUSH1 0x80 PUSH1 0x40 MSTORE PUSH1 0x4 CALLDATASIZE LT ISZERO PUSH2 0x11 JUMPI PUSH0 DUP1 REVERT JUMPDEST PUSH0 CALLDATALOAD PUSH1 0xE0 SHR DUP1 PUSH4 0x641D7A78 EQ PUSH2 0x41B JUMPI DUP1 PUSH4 0x8DA5CB5B EQ PUSH2 0x3F4 JUMPI DUP1 PUSH4 0xACE417E0 EQ PUSH2 0x3B7 JUMPI DUP1 PUSH4 0xB9209E33 EQ PUSH2 0x3B7 JUMPI DUP1 PUSH4 0xC38A0FB4 EQ PUSH2 0x203 JUMPI DUP1 PUSH4 0xD7ED6F14 EQ PUSH2 0x125 JUMPI PUSH4 0xF2FDE38B EQ PUSH2 0x66 JUMPI PUSH0 DUP1 REVERT JUMPDEST CALLVALUE PUSH2 0x121 JUMPI PUSH1 0x20 CALLDATASIZE PUSH1 0x3 NOT ADD SLT PUSH2 0x121 JUMPI PUSH2 0x7F PUSH2 0x607 JUMP JUMPDEST PUSH0 SLOAD PUSH1 0x1 PUSH1 0x1 PUSH1 0xA0 SHL SUB DUP2 AND SWAP2 PUSH2 0x97 CALLER DUP5 EQ PUSH2 0x6F7 JUMP JUMPDEST PUSH1 0x1 PUSH1 0x1 PUSH1 0xA0 SHL SUB AND SWAP2 DUP3 ISZERO PUSH2 0xDC JUMPI DUP3 SWAP1 PUSH32 0x8BE0079C531659141344CD1FD0A4F28419497F9722A3DAAFE3B4186F6B6457E0 PUSH0 DUP1 LOG3 PUSH1 0x1 PUSH1 0x1 PUSH1 0xA0 SHL SUB NOT AND OR PUSH0 SSTORE STOP JUMPDEST PUSH1 0x40 MLOAD PUSH3 0x461BCD PUSH1 0xE5 SHL DUP2 MSTORE PUSH1 0x20 PUSH1 0x4 DUP3 ADD MSTORE PUSH1 0x1D PUSH1 0x24 DUP3 ADD MSTORE PUSH32 0x4E6577206F776E657220697320746865207A65726F2061646472657373000000 PUSH1 0x44 DUP3 ADD MSTORE PUSH1 0x64 SWAP1 REVERT JUMPDEST PUSH0 DUP1 REVERT JUMPDEST CALLVALUE PUSH2 0x121 JUMPI PUSH1 0x20 CALLDATASIZE PUSH1 0x3 NOT ADD SLT PUSH2 0x121 JUMPI PUSH1 0x1 PUSH1 0x1 PUSH1 0xA0 SHL SUB PUSH2 0x146 PUSH2 0x607 JUMP JUMPDEST AND PUSH0 MSTORE PUSH1 0x2 PUSH1 0x20 MSTORE PUSH1 0x40 PUSH0 KECCAK256 PUSH1 0x40 MLOAD SWAP1 PUSH0 SWAP1 DUP1 SLOAD SWAP1 PUSH2 0x164 DUP3 PUSH2 0x695 JUMP JUMPDEST DUP1 DUP6 MSTORE SWAP2 PUSH1 0x1 DUP2 AND SWAP1 DUP2 ISZERO PUSH2 0x1DC JUMPI POP PUSH1 0x1 EQ PUSH2 0x19C JUMPI JUMPDEST PUSH2 0x198 DUP5 PUSH2 0x18C DUP2 DUP7 SUB DUP3 PUSH2 0x61D JUMP JUMPDEST PUSH1 0x40 MLOAD SWAP2 DUP3 SWAP2 DUP3 PUSH2 0x6CD JUMP JUMPDEST SUB SWAP1 RETURN JUMPDEST PUSH0 SWAP1 DUP2 MSTORE PUSH1 0x20 DUP2 KECCAK256 SWAP4 SWAP3 POP SWAP1 JUMPDEST DUP1 DUP3 LT PUSH2 0x1C2 JUMPI POP SWAP1 SWAP2 POP DUP2 ADD PUSH1 0x20 ADD PUSH2 0x18C DUP3 PUSH2 0x17C JUMP JUMPDEST SWAP2 SWAP3 PUSH1 0x1 DUP2 PUSH1 0x20 SWAP3 SLOAD DUP4 DUP6 DUP9 ADD ADD MSTORE ADD SWAP2 ADD SWAP1 SWAP3 SWAP2 PUSH2 0x1A9 JUMP JUMPDEST PUSH1 0xFF NOT AND PUSH1 0x20 DUP1 DUP8 ADD SWAP2 SWAP1 SWAP2 MSTORE SWAP3 ISZERO ISZERO PUSH1 0x5 SHL DUP6 ADD SWAP1 SWAP3 ADD SWAP3 POP PUSH2 0x18C SWAP2 POP DUP4 SWAP1 POP PUSH2 0x17C JUMP JUMPDEST CALLVALUE PUSH2 0x121 JUMPI PUSH1 0x20 CALLDATASIZE PUSH1 0x3 NOT ADD SLT PUSH2 0x121 JUMPI PUSH1 0x4 CALLDATALOAD PUSH8 0xFFFFFFFFFFFFFFFF DUP2 GT PUSH2 0x121 JUMPI PUSH2 0x234 SWAP1 CALLDATASIZE SWAP1 PUSH1 0x4 ADD PUSH2 0x63F JUMP JUMPDEST PUSH2 0x241 PUSH1 0xA DUP3 MLOAD GT PUSH2 0x743 JUMP JUMPDEST CALLER PUSH0 MSTORE PUSH1 0x1 PUSH1 0x20 MSTORE PUSH1 0x40 PUSH0 KECCAK256 PUSH1 0x1 PUSH1 0xFF NOT DUP3 SLOAD AND OR SWAP1 SSTORE CALLER PUSH0 MSTORE PUSH1 0x2 PUSH1 0x20 MSTORE PUSH1 0x40 PUSH0 KECCAK256 DUP2 MLOAD PUSH8 0xFFFFFFFFFFFFFFFF DUP2 GT PUSH2 0x3A3 JUMPI PUSH2 0x27F DUP3 SLOAD PUSH2 0x695 JUMP JUMPDEST PUSH1 0x1F DUP2 GT PUSH2 0x352 JUMPI JUMPDEST POP DUP1 PUSH1 0x20 PUSH1 0x1F DUP3 GT PUSH1 0x1 EQ PUSH2 0x2F1 JUMPI PUSH0 SWAP2 PUSH2 0x2E6 JUMPI JUMPDEST POP DUP2 PUSH1 0x1 SHL SWAP2 PUSH0 NOT SWAP1 PUSH1 0x3 SHL SHR NOT AND OR SWAP1 SSTORE JUMPDEST PUSH32 0xB9A56EF3335A4B13B2AA51519B56125AB2316B50D587AD80EDFCE74FE9A4B7D3 PUSH1 0x40 MLOAD DUP1 PUSH2 0x2E1 CALLER SWAP5 DUP3 PUSH2 0x6CD JUMP JUMPDEST SUB SWAP1 LOG2 STOP JUMPDEST SWAP1 POP DUP4 ADD MLOAD DUP5 PUSH2 0x29E JUMP JUMPDEST PUSH0 DUP5 DUP2 MSTORE DUP2 DUP2 KECCAK256 SWAP3 POP PUSH1 0x1F NOT DUP5 AND SWAP1 JUMPDEST DUP2 DUP2 LT PUSH2 0x33A JUMPI POP SWAP1 DUP4 PUSH1 0x1 SWAP5 SWAP4 SWAP3 LT PUSH2 0x322 JUMPI JUMPDEST POP POP DUP2 SHL ADD SWAP1 SSTORE PUSH2 0x2B1 JUMP JUMPDEST DUP6 ADD MLOAD PUSH0 NOT PUSH1 0xF8 DUP5 PUSH1 0x3 SHL AND SHR NOT AND SWAP1 SSTORE DUP5 DUP1 PUSH2 0x316 JUMP JUMPDEST SWAP2 SWAP3 PUSH1 0x20 PUSH1 0x1 DUP2 SWAP3 DUP7 DUP11 ADD MLOAD DUP2 SSTORE ADD SWAP5 ADD SWAP3 ADD PUSH2 0x301 JUMP JUMPDEST DUP2 DUP2 GT ISZERO PUSH2 0x288 JUMPI DUP3 PUSH0 MSTORE PUSH1 0x20 PUSH0 KECCAK256 PUSH1 0x1F DUP4 ADD PUSH1 0x5 SHR SWAP1 PUSH1 0x20 DUP5 LT PUSH2 0x39B JUMPI JUMPDEST DUP2 PUSH1 0x1F SWAP2 ADD SWAP3 ADD PUSH1 0x5 SHR SUB SWAP1 PUSH0 JUMPDEST DUP3 DUP2 LT PUSH2 0x38E JUMPI POP POP PUSH2 0x288 JUMP JUMPDEST PUSH0 DUP3 DUP3 ADD SSTORE PUSH1 0x1 ADD PUSH2 0x380 JUMP JUMPDEST PUSH0 SWAP2 POP PUSH2 0x372 JUMP JUMPDEST PUSH4 0x4E487B71 PUSH1 0xE0 SHL PUSH0 MSTORE PUSH1 0x41 PUSH1 0x4 MSTORE PUSH1 0x24 PUSH0 REVERT JUMPDEST CALLVALUE PUSH2 0x121 JUMPI PUSH1 0x20 CALLDATASIZE PUSH1 0x3 NOT ADD SLT PUSH2 0x121 JUMPI PUSH1 0x1 PUSH1 0x1 PUSH1 0xA0 SHL SUB PUSH2 0x3D8 PUSH2 0x607 JUMP JUMPDEST AND PUSH0 MSTORE PUSH1 0x1 PUSH1 0x20 MSTORE PUSH1 0x20 PUSH1 0xFF PUSH1 0x40 PUSH0 KECCAK256 SLOAD AND PUSH1 0x40 MLOAD SWAP1 ISZERO ISZERO DUP2 MSTORE RETURN JUMPDEST CALLVALUE PUSH2 0x121 JUMPI PUSH0 CALLDATASIZE PUSH1 0x3 NOT ADD SLT PUSH2 0x121 JUMPI PUSH0 SLOAD PUSH1 0x40 MLOAD PUSH1 0x1 PUSH1 0x1 PUSH1 0xA0 SHL SUB SWAP1 SWAP2 AND DUP2 MSTORE PUSH1 0x20 SWAP1 RETURN JUMPDEST CALLVALUE PUSH2 0x121 JUMPI PUSH1 0x40 CALLDATASIZE PUSH1 0x3 NOT ADD SLT PUSH2 0x121 JUMPI PUSH2 0x434 PUSH2 0x607 JUMP JUMPDEST PUSH1 0x24 CALLDATALOAD PUSH8 0xFFFFFFFFFFFFFFFF DUP2 GT PUSH2 0x121 JUMPI PUSH2 0x454 SWAP1 CALLDATASIZE SWAP1 PUSH1 0x4 ADD PUSH2 0x63F JUMP JUMPDEST SWAP1 PUSH2 0x469 PUSH1 0x1 DUP1 PUSH1 0xA0 SHL SUB PUSH0 SLOAD AND CALLER EQ PUSH2 0x6F7 JUMP JUMPDEST PUSH2 0x476 PUSH1 0xA DUP4 MLOAD GT PUSH2 0x743 JUMP JUMPDEST PUSH1 0x1 PUSH1 0x1 PUSH1 0xA0 SHL SUB AND PUSH0 DUP2 DUP2 MSTORE PUSH1 0x1 PUSH1 0x20 DUP2 DUP2 MSTORE PUSH1 0x40 DUP1 DUP5 KECCAK256 DUP1 SLOAD PUSH1 0xFF NOT AND SWAP1 SWAP4 OR SWAP1 SWAP3 SSTORE PUSH1 0x2 SWAP1 MSTORE SWAP1 KECCAK256 DUP3 MLOAD SWAP3 SWAP1 PUSH8 0xFFFFFFFFFFFFFFFF DUP5 GT PUSH2 0x3A3 JUMPI PUSH2 0x4BE DUP2 SLOAD PUSH2 0x695 JUMP JUMPDEST PUSH1 0x1F DUP2 GT PUSH2 0x5B6 JUMPI JUMPDEST POP PUSH1 0x20 SWAP4 PUSH1 0x1F DUP2 GT PUSH1 0x1 EQ PUSH2 0x530 JUMPI SWAP1 DUP2 PUSH2 0x2E1 SWAP4 SWAP3 PUSH32 0xB9A56EF3335A4B13B2AA51519B56125AB2316B50D587AD80EDFCE74FE9A4B7D3 SWAP6 SWAP7 PUSH0 SWAP2 PUSH2 0x525 JUMPI JUMPDEST POP DUP2 PUSH1 0x1 SHL SWAP2 PUSH0 NOT SWAP1 PUSH1 0x3 SHL SHR NOT AND OR SWAP1 SSTORE PUSH1 0x40 MLOAD SWAP2 DUP3 SWAP2 DUP3 PUSH2 0x6CD JUMP JUMPDEST SWAP1 POP DUP4 ADD MLOAD DUP8 PUSH2 0x507 JUMP JUMPDEST PUSH1 0x1F NOT DUP2 AND DUP3 PUSH0 MSTORE DUP6 PUSH0 KECCAK256 SWAP1 PUSH0 JUMPDEST DUP2 DUP2 LT PUSH2 0x59E JUMPI POP SWAP2 PUSH1 0x1 SWAP2 PUSH32 0xB9A56EF3335A4B13B2AA51519B56125AB2316B50D587AD80EDFCE74FE9A4B7D3 SWAP7 SWAP8 DUP3 PUSH2 0x2E1 SWAP8 SWAP7 SWAP6 LT PUSH2 0x586 JUMPI JUMPDEST POP POP DUP2 SHL ADD SWAP1 SSTORE PUSH2 0x18C JUMP JUMPDEST DUP6 ADD MLOAD PUSH0 NOT PUSH1 0xF8 DUP5 PUSH1 0x3 SHL AND SHR NOT AND SWAP1 SSTORE DUP8 DUP1 PUSH2 0x57A JUMP JUMPDEST DUP6 DUP9 ADD MLOAD DUP4 SSTORE PUSH1 0x20 SWAP8 DUP9 ADD SWAP8 PUSH1 0x1 SWAP1 SWAP4 ADD SWAP3 ADD PUSH2 0x53E JUMP JUMPDEST DUP5 DUP2 GT ISZERO PUSH2 0x4C7 JUMPI DUP2 PUSH0 MSTORE PUSH1 0x20 PUSH0 KECCAK256 PUSH1 0x1F DUP7 ADD PUSH1 0x5 SHR SWAP1 PUSH1 0x20 DUP8 LT PUSH2 0x5FF JUMPI JUMPDEST DUP2 PUSH1 0x1F SWAP2 ADD SWAP3 ADD PUSH1 0x5 SHR SUB SWAP1 PUSH0 JUMPDEST DUP3 DUP2 LT PUSH2 0x5F2 JUMPI POP POP PUSH2 0x4C7 JUMP JUMPDEST PUSH0 DUP3 DUP3 ADD SSTORE PUSH1 0x1 ADD PUSH2 0x5E4 JUMP JUMPDEST PUSH0 SWAP2 POP PUSH2 0x5D6 JUMP JUMPDEST PUSH1 0x4 CALLDATALOAD SWAP1 PUSH1 0x1 PUSH1 0x1 PUSH1 0xA0 SHL SUB DUP3 AND DUP3 SUB PUSH2 0x121 JUMPI JUMP JUMPDEST SWAP1 PUSH1 0x1F DUP1 NOT SWAP2 ADD AND DUP2 ADD SWAP1 DUP2 LT PUSH8 0xFFFFFFFFFFFFFFFF DUP3 GT OR PUSH2 0x3A3 JUMPI PUSH1 0x40 MSTORE JUMP JUMPDEST DUP2 PUSH1 0x1F DUP3 ADD SLT ISZERO PUSH2 0x121 JUMPI DUP1 CALLDATALOAD SWAP1 PUSH8 0xFFFFFFFFFFFFFFFF DUP3 GT PUSH2 0x3A3 JUMPI PUSH1 0x40 MLOAD SWAP3 PUSH2 0x674 PUSH1 0x1F DUP5 ADD PUSH1 0x1F NOT AND PUSH1 0x20 ADD DUP6 PUSH2 0x61D JUMP JUMPDEST DUP3 DUP5 MSTORE PUSH1 0x20 DUP4 DUP4 ADD ADD GT PUSH2 0x121 JUMPI DUP2 PUSH0 SWAP3 PUSH1 0x20 DUP1 SWAP4 ADD DUP4 DUP7 ADD CALLDATACOPY DUP4 ADD ADD MSTORE SWAP1 JUMP JUMPDEST SWAP1 PUSH1 0x1 DUP3 DUP2 SHR SWAP3 AND DUP1 ISZERO PUSH2 0x6C3 JUMPI JUMPDEST PUSH1 0x20 DUP4 LT EQ PUSH2 0x6AF JUMPI JUMP JUMPDEST PUSH4 0x4E487B71 PUSH1 0xE0 SHL PUSH0 MSTORE PUSH1 0x22 PUSH1 0x4 MSTORE PUSH1 0x24 PUSH0 REVERT JUMPDEST SWAP2 PUSH1 0x7F AND SWAP2 PUSH2 0x6A4 JUMP JUMPDEST PUSH1 0x20 PUSH1 0x40 SWAP3 DUP2 DUP4 MSTORE DUP1 MLOAD SWAP2 DUP3 SWAP2 DUP3 DUP3 DUP7 ADD MSTORE ADD DUP5 DUP5 ADD MCOPY PUSH0 DUP3 DUP3 ADD DUP5 ADD MSTORE PUSH1 0x1F ADD PUSH1 0x1F NOT AND ADD ADD SWAP1 JUMP JUMPDEST ISZERO PUSH2 0x6FE JUMPI JUMP JUMPDEST PUSH1 0x40 MLOAD PUSH3 0x461BCD PUSH1 0xE5 SHL DUP2 MSTORE PUSH1 0x20 PUSH1 0x4 DUP3 ADD MSTORE PUSH1 0x18 PUSH1 0x24 DUP3 ADD MSTORE PUSH32 0x4F6E6C79206F776E65722063616E2063616C6C20746869730000000000000000 PUSH1 0x44 DUP3 ADD MSTORE PUSH1 0x64 SWAP1 REVERT JUMPDEST ISZERO PUSH2 0x74A JUMPI JUMP JUMPDEST PUSH1 0x40 MLOAD PUSH3 0x461BCD PUSH1 0xE5 SHL DUP2 MSTORE PUSH1 0x20 PUSH1 0x4 DUP3 ADD MSTORE PUSH1 0xC PUSH1 0x24 DUP3 ADD MSTORE PUSH12 0x92DCECC2D8D2C840D0C2E6D PUSH1 0xA3 SHL PUSH1 0x44 DUP3 ADD MSTORE PUSH1 0x64 SWAP1 REVERT INVALID LOG2 PUSH5 0x6970667358 0x22 SLT KECCAK256 0xB5 DUP3 CHAINID CALLDATACOPY TIMESTAMP ORIGIN 0xD0 0x4E 0x2F 0x2C 0xA5 DATALOADN 0x82F5 SELFBALANCE SAR DUP6 SMOD ADD 0xB9 0xC1 TIMESTAMP DUPN 0x26 DUP1 NUMBER DUPN 0xF5 TLOAD POP CALLDATALOAD 0x2B PUSH5 0x736F6C6343 STOP ADDMOD 0x21 STOP CALLER "
    }
  }
}